{"abi":[{"inputs":[{"internalType":"uint256","name":"minContri","type":"uint256"}],"name":"createCampaign","outputs":[],"stateMutability":"nonpayable","type":"function"},{"inputs":[{"internalType":"uint256","name":"","type":"uint256"}],"name":"deployedContracts","outputs":[{"internalType":"address","name":"","type":"address"}],"stateMutability":"view","type":"function"},{"inputs":[],"name":"getDeployedContracts","outputs":[{"internalType":"address[]","name":"","type":"address[]"}],"stateMutability":"view","type":"function"}],"devdoc":{"kind":"dev","methods":{},"version":1},"evm":{"assembly":"    /* \"campaign.sol\":63:425  contract Factory{... */\n  mstore(0x40, 0x80)\n  callvalue\n  dup1\n  iszero\n  tag_1\n  jumpi\n  0x00\n  dup1\n  revert\ntag_1:\n  pop\n  dataSize(sub_0)\n  dup1\n  dataOffset(sub_0)\n  0x00\n  codecopy\n  0x00\n  return\nstop\n\nsub_0: assembly {\n        /* \"campaign.sol\":63:425  contract Factory{... */\n      mstore(0x40, 0x80)\n      callvalue\n      dup1\n      iszero\n      tag_1\n      jumpi\n      0x00\n      dup1\n      revert\n    tag_1:\n      pop\n      jumpi(tag_2, lt(calldatasize, 0x04))\n      shr(0xe0, calldataload(0x00))\n      dup1\n      0x9ad1ee10\n      eq\n      tag_3\n      jumpi\n      dup1\n      0xa3303a75\n      eq\n      tag_4\n      jumpi\n      dup1\n      0xaa9a068f\n      eq\n      tag_5\n      jumpi\n    tag_2:\n      0x00\n      dup1\n      revert\n        /* \"campaign.sol\":88:122  address[] public deployedContracts */\n    tag_3:\n      tag_6\n      0x04\n      dup1\n      calldatasize\n      sub\n      dup2\n      add\n      swap1\n      tag_7\n      swap2\n      swap1\n      tag_8\n      jump\t// in\n    tag_7:\n      tag_9\n      jump\t// in\n    tag_6:\n      mload(0x40)\n      tag_10\n      swap2\n      swap1\n      tag_11\n      jump\t// in\n    tag_10:\n      mload(0x40)\n      dup1\n      swap2\n      sub\n      swap1\n      return\n        /* \"campaign.sol\":131:300  function createCampaign(uint minContri) public{... */\n    tag_4:\n      tag_12\n      0x04\n      dup1\n      calldatasize\n      sub\n      dup2\n      add\n      swap1\n      tag_13\n      swap2\n      swap1\n      tag_8\n      jump\t// in\n    tag_13:\n      tag_14\n      jump\t// in\n    tag_12:\n      stop\n        /* \"campaign.sol\":308:422  function getDeployedContracts()public view returns (address[] memory){... */\n    tag_5:\n      tag_15\n      tag_16\n      jump\t// in\n    tag_15:\n      mload(0x40)\n      tag_17\n      swap2\n      swap1\n      tag_18\n      jump\t// in\n    tag_17:\n      mload(0x40)\n      dup1\n      swap2\n      sub\n      swap1\n      return\n        /* \"campaign.sol\":88:122  address[] public deployedContracts */\n    tag_9:\n      0x00\n      dup2\n      dup2\n      sload\n      dup2\n      lt\n      tag_19\n      jumpi\n      0x00\n      dup1\n      revert\n    tag_19:\n      swap1\n      0x00\n      mstore\n      keccak256(0x00, 0x20)\n      add\n      0x00\n      swap2\n      pop\n      sload\n      swap1\n      0x0100\n      exp\n      swap1\n      div\n      0xffffffffffffffffffffffffffffffffffffffff\n      and\n      dup2\n      jump\t// out\n        /* \"campaign.sol\":131:300  function createCampaign(uint minContri) public{... */\n    tag_14:\n        /* \"campaign.sol\":188:203  address newCamp */\n      0x00\n        /* \"campaign.sol\":227:236  minContri */\n      dup2\n        /* \"campaign.sol\":238:248  msg.sender */\n      caller\n        /* \"campaign.sol\":214:249  new Campaign(minContri, msg.sender) */\n      mload(0x40)\n      tag_22\n      swap1\n      tag_23\n      jump\t// in\n    tag_22:\n      tag_24\n      swap3\n      swap2\n      swap1\n      tag_25\n      jump\t// in\n    tag_24:\n      mload(0x40)\n      dup1\n      swap2\n      sub\n      swap1\n      0x00\n      create\n      dup1\n      iszero\n      dup1\n      iszero\n      tag_26\n      jumpi\n      returndatasize\n      0x00\n      dup1\n      returndatacopy\n      revert(0x00, returndatasize)\n    tag_26:\n      pop\n        /* \"campaign.sol\":188:250  address newCamp = address(new Campaign(minContri, msg.sender)) */\n      swap1\n      pop\n        /* \"campaign.sol\":261:278  deployedContracts */\n      0x00\n        /* \"campaign.sol\":284:291  newCamp */\n      dup2\n        /* \"campaign.sol\":261:292  deployedContracts.push(newCamp) */\n      swap1\n      dup1\n      0x01\n      dup2\n      sload\n      add\n      dup1\n      dup3\n      sstore\n      dup1\n      swap2\n      pop\n      pop\n      0x01\n      swap1\n      sub\n      swap1\n      0x00\n      mstore\n      keccak256(0x00, 0x20)\n      add\n      0x00\n      swap1\n      swap2\n      swap1\n      swap2\n      swap1\n      swap2\n      0x0100\n      exp\n      dup2\n      sload\n      dup2\n      0xffffffffffffffffffffffffffffffffffffffff\n      mul\n      not\n      and\n      swap1\n      dup4\n      0xffffffffffffffffffffffffffffffffffffffff\n      and\n      mul\n      or\n      swap1\n      sstore\n      pop\n        /* \"campaign.sol\":177:300  {... */\n      pop\n        /* \"campaign.sol\":131:300  function createCampaign(uint minContri) public{... */\n      pop\n      jump\t// out\n        /* \"campaign.sol\":308:422  function getDeployedContracts()public view returns (address[] memory){... */\n    tag_16:\n        /* \"campaign.sol\":360:376  address[] memory */\n      0x60\n        /* \"campaign.sol\":397:414  deployedContracts */\n      0x00\n        /* \"campaign.sol\":390:414  return deployedContracts */\n      dup1\n      sload\n      dup1\n      0x20\n      mul\n      0x20\n      add\n      mload(0x40)\n      swap1\n      dup2\n      add\n      0x40\n      mstore\n      dup1\n      swap3\n      swap2\n      swap1\n      dup2\n      dup2\n      mstore\n      0x20\n      add\n      dup3\n      dup1\n      sload\n      dup1\n      iszero\n      tag_29\n      jumpi\n      0x20\n      mul\n      dup3\n      add\n      swap2\n      swap1\n      0x00\n      mstore\n      keccak256(0x00, 0x20)\n      swap1\n    tag_30:\n      dup2\n      0x00\n      swap1\n      sload\n      swap1\n      0x0100\n      exp\n      swap1\n      div\n      0xffffffffffffffffffffffffffffffffffffffff\n      and\n      0xffffffffffffffffffffffffffffffffffffffff\n      and\n      dup2\n      mstore\n      0x20\n      add\n      swap1\n      0x01\n      add\n      swap1\n      dup1\n      dup4\n      gt\n      tag_30\n      jumpi\n    tag_29:\n      pop\n      pop\n      pop\n      pop\n      pop\n      swap1\n      pop\n        /* \"campaign.sol\":308:422  function getDeployedContracts()public view returns (address[] memory){... */\n      swap1\n      jump\t// out\n    tag_23:\n      dataSize(sub_0)\n      dup1\n      dataOffset(sub_0)\n      dup4\n      codecopy\n      add\n      swap1\n      jump\t// out\n        /* \"#utility.yul\":88:205   */\n    tag_32:\n        /* \"#utility.yul\":197:198   */\n      0x00\n        /* \"#utility.yul\":194:195   */\n      dup1\n        /* \"#utility.yul\":187:199   */\n      revert\n        /* \"#utility.yul\":334:411   */\n    tag_34:\n        /* \"#utility.yul\":371:378   */\n      0x00\n        /* \"#utility.yul\":400:405   */\n      dup2\n        /* \"#utility.yul\":389:405   */\n      swap1\n      pop\n        /* \"#utility.yul\":334:411   */\n      swap2\n      swap1\n      pop\n      jump\t// out\n        /* \"#utility.yul\":417:539   */\n    tag_35:\n        /* \"#utility.yul\":490:514   */\n      tag_54\n        /* \"#utility.yul\":508:513   */\n      dup2\n        /* \"#utility.yul\":490:514   */\n      tag_34\n      jump\t// in\n    tag_54:\n        /* \"#utility.yul\":483:488   */\n      dup2\n        /* \"#utility.yul\":480:515   */\n      eq\n        /* \"#utility.yul\":470:533   */\n      tag_55\n      jumpi\n        /* \"#utility.yul\":529:530   */\n      0x00\n        /* \"#utility.yul\":526:527   */\n      dup1\n        /* \"#utility.yul\":519:531   */\n      revert\n        /* \"#utility.yul\":470:533   */\n    tag_55:\n        /* \"#utility.yul\":417:539   */\n      pop\n      jump\t// out\n        /* \"#utility.yul\":545:684   */\n    tag_36:\n        /* \"#utility.yul\":591:596   */\n      0x00\n        /* \"#utility.yul\":629:635   */\n      dup2\n        /* \"#utility.yul\":616:636   */\n      calldataload\n        /* \"#utility.yul\":607:636   */\n      swap1\n      pop\n        /* \"#utility.yul\":645:678   */\n      tag_57\n        /* \"#utility.yul\":672:677   */\n      dup2\n        /* \"#utility.yul\":645:678   */\n      tag_35\n      jump\t// in\n    tag_57:\n        /* \"#utility.yul\":545:684   */\n      swap3\n      swap2\n      pop\n      pop\n      jump\t// out\n        /* \"#utility.yul\":690:1019   */\n    tag_8:\n        /* \"#utility.yul\":749:755   */\n      0x00\n        /* \"#utility.yul\":798:800   */\n      0x20\n        /* \"#utility.yul\":786:795   */\n      dup3\n        /* \"#utility.yul\":777:784   */\n      dup5\n        /* \"#utility.yul\":773:796   */\n      sub\n        /* \"#utility.yul\":769:801   */\n      slt\n        /* \"#utility.yul\":766:885   */\n      iszero\n      tag_59\n      jumpi\n        /* \"#utility.yul\":804:883   */\n      tag_60\n      tag_32\n      jump\t// in\n    tag_60:\n        /* \"#utility.yul\":766:885   */\n    tag_59:\n        /* \"#utility.yul\":924:925   */\n      0x00\n        /* \"#utility.yul\":949:1002   */\n      tag_61\n        /* \"#utility.yul\":994:1001   */\n      dup5\n        /* \"#utility.yul\":985:991   */\n      dup3\n        /* \"#utility.yul\":974:983   */\n      dup6\n        /* \"#utility.yul\":970:992   */\n      add\n        /* \"#utility.yul\":949:1002   */\n      tag_36\n      jump\t// in\n    tag_61:\n        /* \"#utility.yul\":939:1002   */\n      swap2\n      pop\n        /* \"#utility.yul\":895:1012   */\n      pop\n        /* \"#utility.yul\":690:1019   */\n      swap3\n      swap2\n      pop\n      pop\n      jump\t// out\n        /* \"#utility.yul\":1025:1151   */\n    tag_37:\n        /* \"#utility.yul\":1062:1069   */\n      0x00\n        /* \"#utility.yul\":1102:1144   */\n      0xffffffffffffffffffffffffffffffffffffffff\n        /* \"#utility.yul\":1095:1100   */\n      dup3\n        /* \"#utility.yul\":1091:1145   */\n      and\n        /* \"#utility.yul\":1080:1145   */\n      swap1\n      pop\n        /* \"#utility.yul\":1025:1151   */\n      swap2\n      swap1\n      pop\n      jump\t// out\n        /* \"#utility.yul\":1157:1253   */\n    tag_38:\n        /* \"#utility.yul\":1194:1201   */\n      0x00\n        /* \"#utility.yul\":1223:1247   */\n      tag_64\n        /* \"#utility.yul\":1241:1246   */\n      dup3\n        /* \"#utility.yul\":1223:1247   */\n      tag_37\n      jump\t// in\n    tag_64:\n        /* \"#utility.yul\":1212:1247   */\n      swap1\n      pop\n        /* \"#utility.yul\":1157:1253   */\n      swap2\n      swap1\n      pop\n      jump\t// out\n        /* \"#utility.yul\":1259:1377   */\n    tag_39:\n        /* \"#utility.yul\":1346:1370   */\n      tag_66\n        /* \"#utility.yul\":1364:1369   */\n      dup2\n        /* \"#utility.yul\":1346:1370   */\n      tag_38\n      jump\t// in\n    tag_66:\n        /* \"#utility.yul\":1341:1344   */\n      dup3\n        /* \"#utility.yul\":1334:1371   */\n      mstore\n        /* \"#utility.yul\":1259:1377   */\n      pop\n      pop\n      jump\t// out\n        /* \"#utility.yul\":1383:1605   */\n    tag_11:\n        /* \"#utility.yul\":1476:1480   */\n      0x00\n        /* \"#utility.yul\":1514:1516   */\n      0x20\n        /* \"#utility.yul\":1503:1512   */\n      dup3\n        /* \"#utility.yul\":1499:1517   */\n      add\n        /* \"#utility.yul\":1491:1517   */\n      swap1\n      pop\n        /* \"#utility.yul\":1527:1598   */\n      tag_68\n        /* \"#utility.yul\":1595:1596   */\n      0x00\n        /* \"#utility.yul\":1584:1593   */\n      dup4\n        /* \"#utility.yul\":1580:1597   */\n      add\n        /* \"#utility.yul\":1571:1577   */\n      dup5\n        /* \"#utility.yul\":1527:1598   */\n      tag_39\n      jump\t// in\n    tag_68:\n        /* \"#utility.yul\":1383:1605   */\n      swap3\n      swap2\n      pop\n      pop\n      jump\t// out\n        /* \"#utility.yul\":1611:1725   */\n    tag_40:\n        /* \"#utility.yul\":1678:1684   */\n      0x00\n        /* \"#utility.yul\":1712:1717   */\n      dup2\n        /* \"#utility.yul\":1706:1718   */\n      mload\n        /* \"#utility.yul\":1696:1718   */\n      swap1\n      pop\n        /* \"#utility.yul\":1611:1725   */\n      swap2\n      swap1\n      pop\n      jump\t// out\n        /* \"#utility.yul\":1731:1915   */\n    tag_41:\n        /* \"#utility.yul\":1830:1841   */\n      0x00\n        /* \"#utility.yul\":1864:1870   */\n      dup3\n        /* \"#utility.yul\":1859:1862   */\n      dup3\n        /* \"#utility.yul\":1852:1871   */\n      mstore\n        /* \"#utility.yul\":1904:1908   */\n      0x20\n        /* \"#utility.yul\":1899:1902   */\n      dup3\n        /* \"#utility.yul\":1895:1909   */\n      add\n        /* \"#utility.yul\":1880:1909   */\n      swap1\n      pop\n        /* \"#utility.yul\":1731:1915   */\n      swap3\n      swap2\n      pop\n      pop\n      jump\t// out\n        /* \"#utility.yul\":1921:2053   */\n    tag_42:\n        /* \"#utility.yul\":1988:1992   */\n      0x00\n        /* \"#utility.yul\":2011:2014   */\n      dup2\n        /* \"#utility.yul\":2003:2014   */\n      swap1\n      pop\n        /* \"#utility.yul\":2041:2045   */\n      0x20\n        /* \"#utility.yul\":2036:2039   */\n      dup3\n        /* \"#utility.yul\":2032:2046   */\n      add\n        /* \"#utility.yul\":2024:2046   */\n      swap1\n      pop\n        /* \"#utility.yul\":1921:2053   */\n      swap2\n      swap1\n      pop\n      jump\t// out\n        /* \"#utility.yul\":2059:2167   */\n    tag_43:\n        /* \"#utility.yul\":2136:2160   */\n      tag_73\n        /* \"#utility.yul\":2154:2159   */\n      dup2\n        /* \"#utility.yul\":2136:2160   */\n      tag_38\n      jump\t// in\n    tag_73:\n        /* \"#utility.yul\":2131:2134   */\n      dup3\n        /* \"#utility.yul\":2124:2161   */\n      mstore\n        /* \"#utility.yul\":2059:2167   */\n      pop\n      pop\n      jump\t// out\n        /* \"#utility.yul\":2173:2352   */\n    tag_44:\n        /* \"#utility.yul\":2242:2252   */\n      0x00\n        /* \"#utility.yul\":2263:2309   */\n      tag_75\n        /* \"#utility.yul\":2305:2308   */\n      dup4\n        /* \"#utility.yul\":2297:2303   */\n      dup4\n        /* \"#utility.yul\":2263:2309   */\n      tag_43\n      jump\t// in\n    tag_75:\n        /* \"#utility.yul\":2341:2345   */\n      0x20\n        /* \"#utility.yul\":2336:2339   */\n      dup4\n        /* \"#utility.yul\":2332:2346   */\n      add\n        /* \"#utility.yul\":2318:2346   */\n      swap1\n      pop\n        /* \"#utility.yul\":2173:2352   */\n      swap3\n      swap2\n      pop\n      pop\n      jump\t// out\n        /* \"#utility.yul\":2358:2471   */\n    tag_45:\n        /* \"#utility.yul\":2428:2432   */\n      0x00\n        /* \"#utility.yul\":2460:2464   */\n      0x20\n        /* \"#utility.yul\":2455:2458   */\n      dup3\n        /* \"#utility.yul\":2451:2465   */\n      add\n        /* \"#utility.yul\":2443:2465   */\n      swap1\n      pop\n        /* \"#utility.yul\":2358:2471   */\n      swap2\n      swap1\n      pop\n      jump\t// out\n        /* \"#utility.yul\":2507:3239   */\n    tag_46:\n        /* \"#utility.yul\":2626:2629   */\n      0x00\n        /* \"#utility.yul\":2655:2709   */\n      tag_78\n        /* \"#utility.yul\":2703:2708   */\n      dup3\n        /* \"#utility.yul\":2655:2709   */\n      tag_40\n      jump\t// in\n    tag_78:\n        /* \"#utility.yul\":2725:2811   */\n      tag_79\n        /* \"#utility.yul\":2804:2810   */\n      dup2\n        /* \"#utility.yul\":2799:2802   */\n      dup6\n        /* \"#utility.yul\":2725:2811   */\n      tag_41\n      jump\t// in\n    tag_79:\n        /* \"#utility.yul\":2718:2811   */\n      swap4\n      pop\n        /* \"#utility.yul\":2835:2891   */\n      tag_80\n        /* \"#utility.yul\":2885:2890   */\n      dup4\n        /* \"#utility.yul\":2835:2891   */\n      tag_42\n      jump\t// in\n    tag_80:\n        /* \"#utility.yul\":2914:2921   */\n      dup1\n        /* \"#utility.yul\":2945:2946   */\n      0x00\n        /* \"#utility.yul\":2930:3214   */\n    tag_81:\n        /* \"#utility.yul\":2955:2961   */\n      dup4\n        /* \"#utility.yul\":2952:2953   */\n      dup2\n        /* \"#utility.yul\":2949:2962   */\n      lt\n        /* \"#utility.yul\":2930:3214   */\n      iszero\n      tag_83\n      jumpi\n        /* \"#utility.yul\":3031:3037   */\n      dup2\n        /* \"#utility.yul\":3025:3038   */\n      mload\n        /* \"#utility.yul\":3058:3121   */\n      tag_84\n        /* \"#utility.yul\":3117:3120   */\n      dup9\n        /* \"#utility.yul\":3102:3115   */\n      dup3\n        /* \"#utility.yul\":3058:3121   */\n      tag_44\n      jump\t// in\n    tag_84:\n        /* \"#utility.yul\":3051:3121   */\n      swap8\n      pop\n        /* \"#utility.yul\":3144:3204   */\n      tag_85\n        /* \"#utility.yul\":3197:3203   */\n      dup4\n        /* \"#utility.yul\":3144:3204   */\n      tag_45\n      jump\t// in\n    tag_85:\n        /* \"#utility.yul\":3134:3204   */\n      swap3\n      pop\n        /* \"#utility.yul\":2990:3214   */\n      pop\n        /* \"#utility.yul\":2977:2978   */\n      0x01\n        /* \"#utility.yul\":2974:2975   */\n      dup2\n        /* \"#utility.yul\":2970:2979   */\n      add\n        /* \"#utility.yul\":2965:2979   */\n      swap1\n      pop\n        /* \"#utility.yul\":2930:3214   */\n      jump(tag_81)\n    tag_83:\n        /* \"#utility.yul\":2934:2948   */\n      pop\n        /* \"#utility.yul\":3230:3233   */\n      dup6\n        /* \"#utility.yul\":3223:3233   */\n      swap4\n      pop\n        /* \"#utility.yul\":2631:3239   */\n      pop\n      pop\n      pop\n        /* \"#utility.yul\":2507:3239   */\n      swap3\n      swap2\n      pop\n      pop\n      jump\t// out\n        /* \"#utility.yul\":3245:3618   */\n    tag_18:\n        /* \"#utility.yul\":3388:3392   */\n      0x00\n        /* \"#utility.yul\":3426:3428   */\n      0x20\n        /* \"#utility.yul\":3415:3424   */\n      dup3\n        /* \"#utility.yul\":3411:3429   */\n      add\n        /* \"#utility.yul\":3403:3429   */\n      swap1\n      pop\n        /* \"#utility.yul\":3475:3484   */\n      dup2\n        /* \"#utility.yul\":3469:3473   */\n      dup2\n        /* \"#utility.yul\":3465:3485   */\n      sub\n        /* \"#utility.yul\":3461:3462   */\n      0x00\n        /* \"#utility.yul\":3450:3459   */\n      dup4\n        /* \"#utility.yul\":3446:3463   */\n      add\n        /* \"#utility.yul\":3439:3486   */\n      mstore\n        /* \"#utility.yul\":3503:3611   */\n      tag_87\n        /* \"#utility.yul\":3606:3610   */\n      dup2\n        /* \"#utility.yul\":3597:3603   */\n      dup5\n        /* \"#utility.yul\":3503:3611   */\n      tag_46\n      jump\t// in\n    tag_87:\n        /* \"#utility.yul\":3495:3611   */\n      swap1\n      pop\n        /* \"#utility.yul\":3245:3618   */\n      swap3\n      swap2\n      pop\n      pop\n      jump\t// out\n        /* \"#utility.yul\":3624:3742   */\n    tag_47:\n        /* \"#utility.yul\":3711:3735   */\n      tag_89\n        /* \"#utility.yul\":3729:3734   */\n      dup2\n        /* \"#utility.yul\":3711:3735   */\n      tag_34\n      jump\t// in\n    tag_89:\n        /* \"#utility.yul\":3706:3709   */\n      dup3\n        /* \"#utility.yul\":3699:3736   */\n      mstore\n        /* \"#utility.yul\":3624:3742   */\n      pop\n      pop\n      jump\t// out\n        /* \"#utility.yul\":3748:4080   */\n    tag_25:\n        /* \"#utility.yul\":3869:3873   */\n      0x00\n        /* \"#utility.yul\":3907:3909   */\n      0x40\n        /* \"#utility.yul\":3896:3905   */\n      dup3\n        /* \"#utility.yul\":3892:3910   */\n      add\n        /* \"#utility.yul\":3884:3910   */\n      swap1\n      pop\n        /* \"#utility.yul\":3920:3991   */\n      tag_91\n        /* \"#utility.yul\":3988:3989   */\n      0x00\n        /* \"#utility.yul\":3977:3986   */\n      dup4\n        /* \"#utility.yul\":3973:3990   */\n      add\n        /* \"#utility.yul\":3964:3970   */\n      dup6\n        /* \"#utility.yul\":3920:3991   */\n      tag_47\n      jump\t// in\n    tag_91:\n        /* \"#utility.yul\":4001:4073   */\n      tag_92\n        /* \"#utility.yul\":4069:4071   */\n      0x20\n        /* \"#utility.yul\":4058:4067   */\n      dup4\n        /* \"#utility.yul\":4054:4072   */\n      add\n        /* \"#utility.yul\":4045:4051   */\n      dup5\n        /* \"#utility.yul\":4001:4073   */\n      tag_39\n      jump\t// in\n    tag_92:\n        /* \"#utility.yul\":3748:4080   */\n      swap4\n      swap3\n      pop\n      pop\n      pop\n      jump\t// out\n    stop\n\n    sub_0: assembly {\n            /* \"campaign.sol\":433:3032  contract Campaign{... */\n          mstore(0x40, 0x80)\n            /* \"campaign.sol\":1013:1158  constructor(uint minContri,address owner){... */\n          callvalue\n          dup1\n          iszero\n          tag_1\n          jumpi\n          0x00\n          dup1\n          revert\n        tag_1:\n          pop\n          mload(0x40)\n          sub(codesize, bytecodeSize)\n          dup1\n          bytecodeSize\n          dup4\n          codecopy\n          dup2\n          dup2\n          add\n          0x40\n          mstore\n          dup2\n          add\n          swap1\n          tag_2\n          swap2\n          swap1\n          tag_3\n          jump\t// in\n        tag_2:\n            /* \"campaign.sol\":1074:1079  owner */\n          dup1\n            /* \"campaign.sol\":1065:1072  manager */\n          0x01\n          0x00\n            /* \"campaign.sol\":1065:1079  manager= owner */\n          0x0100\n          exp\n          dup2\n          sload\n          dup2\n          0xffffffffffffffffffffffffffffffffffffffff\n          mul\n          not\n          and\n          swap1\n          dup4\n          0xffffffffffffffffffffffffffffffffffffffff\n          and\n          mul\n          or\n          swap1\n          sstore\n          pop\n            /* \"campaign.sol\":1131:1140  minContri */\n          dup2\n            /* \"campaign.sol\":1114:1129  minContribution */\n          0x02\n            /* \"campaign.sol\":1114:1140  minContribution= minContri */\n          dup2\n          swap1\n          sstore\n          pop\n            /* \"campaign.sol\":1013:1158  constructor(uint minContri,address owner){... */\n          pop\n          pop\n            /* \"campaign.sol\":433:3032  contract Campaign{... */\n          jump(tag_6)\n            /* \"#utility.yul\":88:205   */\n        tag_8:\n            /* \"#utility.yul\":197:198   */\n          0x00\n            /* \"#utility.yul\":194:195   */\n          dup1\n            /* \"#utility.yul\":187:199   */\n          revert\n            /* \"#utility.yul\":334:411   */\n        tag_10:\n            /* \"#utility.yul\":371:378   */\n          0x00\n            /* \"#utility.yul\":400:405   */\n          dup2\n            /* \"#utility.yul\":389:405   */\n          swap1\n          pop\n            /* \"#utility.yul\":334:411   */\n          swap2\n          swap1\n          pop\n          jump\t// out\n            /* \"#utility.yul\":417:539   */\n        tag_11:\n            /* \"#utility.yul\":490:514   */\n          tag_23\n            /* \"#utility.yul\":508:513   */\n          dup2\n            /* \"#utility.yul\":490:514   */\n          tag_10\n          jump\t// in\n        tag_23:\n            /* \"#utility.yul\":483:488   */\n          dup2\n            /* \"#utility.yul\":480:515   */\n          eq\n            /* \"#utility.yul\":470:533   */\n          tag_24\n          jumpi\n            /* \"#utility.yul\":529:530   */\n          0x00\n            /* \"#utility.yul\":526:527   */\n          dup1\n            /* \"#utility.yul\":519:531   */\n          revert\n            /* \"#utility.yul\":470:533   */\n        tag_24:\n            /* \"#utility.yul\":417:539   */\n          pop\n          jump\t// out\n            /* \"#utility.yul\":545:688   */\n        tag_12:\n            /* \"#utility.yul\":602:607   */\n          0x00\n            /* \"#utility.yul\":633:639   */\n          dup2\n            /* \"#utility.yul\":627:640   */\n          mload\n            /* \"#utility.yul\":618:640   */\n          swap1\n          pop\n            /* \"#utility.yul\":649:682   */\n          tag_26\n            /* \"#utility.yul\":676:681   */\n          dup2\n            /* \"#utility.yul\":649:682   */\n          tag_11\n          jump\t// in\n        tag_26:\n            /* \"#utility.yul\":545:688   */\n          swap3\n          swap2\n          pop\n          pop\n          jump\t// out\n            /* \"#utility.yul\":694:820   */\n        tag_13:\n            /* \"#utility.yul\":731:738   */\n          0x00\n            /* \"#utility.yul\":771:813   */\n          0xffffffffffffffffffffffffffffffffffffffff\n            /* \"#utility.yul\":764:769   */\n          dup3\n            /* \"#utility.yul\":760:814   */\n          and\n            /* \"#utility.yul\":749:814   */\n          swap1\n          pop\n            /* \"#utility.yul\":694:820   */\n          swap2\n          swap1\n          pop\n          jump\t// out\n            /* \"#utility.yul\":826:922   */\n        tag_14:\n            /* \"#utility.yul\":863:870   */\n          0x00\n            /* \"#utility.yul\":892:916   */\n          tag_29\n            /* \"#utility.yul\":910:915   */\n          dup3\n            /* \"#utility.yul\":892:916   */\n          tag_13\n          jump\t// in\n        tag_29:\n            /* \"#utility.yul\":881:916   */\n          swap1\n          pop\n            /* \"#utility.yul\":826:922   */\n          swap2\n          swap1\n          pop\n          jump\t// out\n            /* \"#utility.yul\":928:1050   */\n        tag_15:\n            /* \"#utility.yul\":1001:1025   */\n          tag_31\n            /* \"#utility.yul\":1019:1024   */\n          dup2\n            /* \"#utility.yul\":1001:1025   */\n          tag_14\n          jump\t// in\n        tag_31:\n            /* \"#utility.yul\":994:999   */\n          dup2\n            /* \"#utility.yul\":991:1026   */\n          eq\n            /* \"#utility.yul\":981:1044   */\n          tag_32\n          jumpi\n            /* \"#utility.yul\":1040:1041   */\n          0x00\n            /* \"#utility.yul\":1037:1038   */\n          dup1\n            /* \"#utility.yul\":1030:1042   */\n          revert\n            /* \"#utility.yul\":981:1044   */\n        tag_32:\n            /* \"#utility.yul\":928:1050   */\n          pop\n          jump\t// out\n            /* \"#utility.yul\":1056:1199   */\n        tag_16:\n            /* \"#utility.yul\":1113:1118   */\n          0x00\n            /* \"#utility.yul\":1144:1150   */\n          dup2\n            /* \"#utility.yul\":1138:1151   */\n          mload\n            /* \"#utility.yul\":1129:1151   */\n          swap1\n          pop\n            /* \"#utility.yul\":1160:1193   */\n          tag_34\n            /* \"#utility.yul\":1187:1192   */\n          dup2\n            /* \"#utility.yul\":1160:1193   */\n          tag_15\n          jump\t// in\n        tag_34:\n            /* \"#utility.yul\":1056:1199   */\n          swap3\n          swap2\n          pop\n          pop\n          jump\t// out\n            /* \"#utility.yul\":1205:1712   */\n        tag_3:\n            /* \"#utility.yul\":1284:1290   */\n          0x00\n            /* \"#utility.yul\":1292:1298   */\n          dup1\n            /* \"#utility.yul\":1341:1343   */\n          0x40\n            /* \"#utility.yul\":1329:1338   */\n          dup4\n            /* \"#utility.yul\":1320:1327   */\n          dup6\n            /* \"#utility.yul\":1316:1339   */\n          sub\n            /* \"#utility.yul\":1312:1344   */\n          slt\n            /* \"#utility.yul\":1309:1428   */\n          iszero\n          tag_36\n          jumpi\n            /* \"#utility.yul\":1347:1426   */\n          tag_37\n          tag_8\n          jump\t// in\n        tag_37:\n            /* \"#utility.yul\":1309:1428   */\n        tag_36:\n            /* \"#utility.yul\":1467:1468   */\n          0x00\n            /* \"#utility.yul\":1492:1556   */\n          tag_38\n            /* \"#utility.yul\":1548:1555   */\n          dup6\n            /* \"#utility.yul\":1539:1545   */\n          dup3\n            /* \"#utility.yul\":1528:1537   */\n          dup7\n            /* \"#utility.yul\":1524:1546   */\n          add\n            /* \"#utility.yul\":1492:1556   */\n          tag_12\n          jump\t// in\n        tag_38:\n            /* \"#utility.yul\":1482:1556   */\n          swap3\n          pop\n            /* \"#utility.yul\":1438:1566   */\n          pop\n            /* \"#utility.yul\":1605:1607   */\n          0x20\n            /* \"#utility.yul\":1631:1695   */\n          tag_39\n            /* \"#utility.yul\":1687:1694   */\n          dup6\n            /* \"#utility.yul\":1678:1684   */\n          dup3\n            /* \"#utility.yul\":1667:1676   */\n          dup7\n            /* \"#utility.yul\":1663:1685   */\n          add\n            /* \"#utility.yul\":1631:1695   */\n          tag_16\n          jump\t// in\n        tag_39:\n            /* \"#utility.yul\":1621:1695   */\n          swap2\n          pop\n            /* \"#utility.yul\":1576:1705   */\n          pop\n            /* \"#utility.yul\":1205:1712   */\n          swap3\n          pop\n          swap3\n          swap1\n          pop\n          jump\t// out\n            /* \"campaign.sol\":433:3032  contract Campaign{... */\n        tag_6:\n          dataSize(sub_0)\n          dup1\n          dataOffset(sub_0)\n          0x00\n          codecopy\n          0x00\n          return\n        stop\n\n        sub_0: assembly {\n                /* \"campaign.sol\":433:3032  contract Campaign{... */\n              mstore(0x40, 0x80)\n              jumpi(tag_1, lt(calldatasize, 0x04))\n              shr(0xe0, calldataload(0x00))\n              dup1\n              0x8b7afe2e\n              gt\n              tag_14\n              jumpi\n              dup1\n              0x8b7afe2e\n              eq\n              tag_8\n              jumpi\n              dup1\n              0xaaffadf3\n              eq\n              tag_9\n              jumpi\n              dup1\n              0xc1f11b4c\n              eq\n              tag_10\n              jumpi\n              dup1\n              0xc3cf2792\n              eq\n              tag_11\n              jumpi\n              dup1\n              0xd7bb99ba\n              eq\n              tag_12\n              jumpi\n              dup1\n              0xd7d1bbdb\n              eq\n              tag_13\n              jumpi\n              jump(tag_1)\n            tag_14:\n              dup1\n              0x03441006\n              eq\n              tag_2\n              jumpi\n              dup1\n              0x0a144391\n              eq\n              tag_3\n              jumpi\n              dup1\n              0x4051ddac\n              eq\n              tag_4\n              jumpi\n              dup1\n              0x481c6a75\n              eq\n              tag_5\n              jumpi\n              dup1\n              0x81d12c58\n              eq\n              tag_6\n              jumpi\n              dup1\n              0x8a9cfd55\n              eq\n              tag_7\n              jumpi\n            tag_1:\n              0x00\n              dup1\n              revert\n                /* \"campaign.sol\":2304:2651  function finalizeRequest(uint idx) public restricted payable{... */\n            tag_2:\n              tag_15\n              0x04\n              dup1\n              calldatasize\n              sub\n              dup2\n              add\n              swap1\n              tag_16\n              swap2\n              swap1\n              tag_17\n              jump\t// in\n            tag_16:\n              tag_18\n              jump\t// in\n            tag_15:\n              stop\n                /* \"campaign.sol\":814:855  mapping(address => bool) public approvers */\n            tag_3:\n              callvalue\n              dup1\n              iszero\n              tag_19\n              jumpi\n              0x00\n              dup1\n              revert\n            tag_19:\n              pop\n              tag_20\n              0x04\n              dup1\n              calldatasize\n              sub\n              dup2\n              add\n              swap1\n              tag_21\n              swap2\n              swap1\n              tag_22\n              jump\t// in\n            tag_21:\n              tag_23\n              jump\t// in\n            tag_20:\n              mload(0x40)\n              tag_24\n              swap2\n              swap1\n              tag_25\n              jump\t// in\n            tag_24:\n              mload(0x40)\n              dup1\n              swap2\n              sub\n              swap1\n              return\n                /* \"campaign.sol\":2762:3025  function getSummary() public view returns(uint, uint, uint, uint, address){... */\n            tag_4:\n              callvalue\n              dup1\n              iszero\n              tag_26\n              jumpi\n              0x00\n              dup1\n              revert\n            tag_26:\n              pop\n              tag_27\n              tag_28\n              jump\t// in\n            tag_27:\n              mload(0x40)\n              tag_29\n              swap6\n              swap5\n              swap4\n              swap3\n              swap2\n              swap1\n              tag_30\n              jump\t// in\n            tag_29:\n              mload(0x40)\n              dup1\n              swap2\n              sub\n              swap1\n              return\n                /* \"campaign.sol\":750:772  address public manager */\n            tag_5:\n              callvalue\n              dup1\n              iszero\n              tag_31\n              jumpi\n              0x00\n              dup1\n              revert\n            tag_31:\n              pop\n              tag_32\n              tag_33\n              jump\t// in\n            tag_32:\n              mload(0x40)\n              tag_34\n              swap2\n              swap1\n              tag_35\n              jump\t// in\n            tag_34:\n              mload(0x40)\n              dup1\n              swap2\n              sub\n              swap1\n              return\n                /* \"campaign.sol\":702:743  mapping (uint => Request) public requests */\n            tag_6:\n              callvalue\n              dup1\n              iszero\n              tag_36\n              jumpi\n              0x00\n              dup1\n              revert\n            tag_36:\n              pop\n              tag_37\n              0x04\n              dup1\n              calldatasize\n              sub\n              dup2\n              add\n              swap1\n              tag_38\n              swap2\n              swap1\n              tag_17\n              jump\t// in\n            tag_38:\n              tag_39\n              jump\t// in\n            tag_37:\n              mload(0x40)\n              tag_40\n              swap6\n              swap5\n              swap4\n              swap3\n              swap2\n              swap1\n              tag_41\n              jump\t// in\n            tag_40:\n              mload(0x40)\n              dup1\n              swap2\n              sub\n              swap1\n              return\n                /* \"campaign.sol\":1440:1961  function createRequest(string memory desc,uint val,address rec) public restricted{... */\n            tag_7:\n              callvalue\n              dup1\n              iszero\n              tag_42\n              jumpi\n              0x00\n              dup1\n              revert\n            tag_42:\n              pop\n              tag_43\n              0x04\n              dup1\n              calldatasize\n              sub\n              dup2\n              add\n              swap1\n              tag_44\n              swap2\n              swap1\n              tag_45\n              jump\t// in\n            tag_44:\n              tag_46\n              jump\t// in\n            tag_43:\n              stop\n                /* \"campaign.sol\":1166:1256  function contractBalance() public view returns(uint) {... */\n            tag_8:\n              callvalue\n              dup1\n              iszero\n              tag_47\n              jumpi\n              0x00\n              dup1\n              revert\n            tag_47:\n              pop\n              tag_48\n              tag_49\n              jump\t// in\n            tag_48:\n              mload(0x40)\n              tag_50\n              swap2\n              swap1\n              tag_51\n              jump\t// in\n            tag_50:\n              mload(0x40)\n              dup1\n              swap2\n              sub\n              swap1\n              return\n                /* \"campaign.sol\":779:806  uint public minContribution */\n            tag_9:\n              callvalue\n              dup1\n              iszero\n              tag_52\n              jumpi\n              0x00\n              dup1\n              revert\n            tag_52:\n              pop\n              tag_53\n              tag_54\n              jump\t// in\n            tag_53:\n              mload(0x40)\n              tag_55\n              swap2\n              swap1\n              tag_51\n              jump\t// in\n            tag_55:\n              mload(0x40)\n              dup1\n              swap2\n              sub\n              swap1\n              return\n                /* \"campaign.sol\":2665:2754  function noOfRequests() public view returns (uint) {... */\n            tag_10:\n              callvalue\n              dup1\n              iszero\n              tag_56\n              jumpi\n              0x00\n              dup1\n              revert\n            tag_56:\n              pop\n              tag_57\n              tag_58\n              jump\t// in\n            tag_57:\n              mload(0x40)\n              tag_59\n              swap2\n              swap1\n              tag_51\n              jump\t// in\n            tag_59:\n              mload(0x40)\n              dup1\n              swap2\n              sub\n              swap1\n              return\n                /* \"campaign.sol\":862:886  uint public approverscnt */\n            tag_11:\n              callvalue\n              dup1\n              iszero\n              tag_60\n              jumpi\n              0x00\n              dup1\n              revert\n            tag_60:\n              pop\n              tag_61\n              tag_62\n              jump\t// in\n            tag_61:\n              mload(0x40)\n              tag_63\n              swap2\n              swap1\n              tag_51\n              jump\t// in\n            tag_63:\n              mload(0x40)\n              dup1\n              swap2\n              sub\n              swap1\n              return\n                /* \"campaign.sol\":1264:1432  function contribute() public payable{... */\n            tag_12:\n              tag_64\n              tag_65\n              jump\t// in\n            tag_64:\n              stop\n                /* \"campaign.sol\":1969:2296  function approveRequest(uint index) public{... */\n            tag_13:\n              callvalue\n              dup1\n              iszero\n              tag_66\n              jumpi\n              0x00\n              dup1\n              revert\n            tag_66:\n              pop\n              tag_67\n              0x04\n              dup1\n              calldatasize\n              sub\n              dup2\n              add\n              swap1\n              tag_68\n              swap2\n              swap1\n              tag_17\n              jump\t// in\n            tag_68:\n              tag_69\n              jump\t// in\n            tag_67:\n              stop\n                /* \"campaign.sol\":2304:2651  function finalizeRequest(uint idx) public restricted payable{... */\n            tag_18:\n                /* \"campaign.sol\":977:984  manager */\n              0x01\n              0x00\n              swap1\n              sload\n              swap1\n              0x0100\n              exp\n              swap1\n              div\n              0xffffffffffffffffffffffffffffffffffffffff\n              and\n                /* \"campaign.sol\":963:984  msg.sender == manager */\n              0xffffffffffffffffffffffffffffffffffffffff\n              and\n                /* \"campaign.sol\":963:973  msg.sender */\n              caller\n                /* \"campaign.sol\":963:984  msg.sender == manager */\n              0xffffffffffffffffffffffffffffffffffffffff\n              and\n              eq\n                /* \"campaign.sol\":955:985  require(msg.sender == manager) */\n              tag_71\n              jumpi\n              0x00\n              dup1\n              revert\n            tag_71:\n                /* \"campaign.sol\":2386:2394  requests */\n              0x00\n                /* \"campaign.sol\":2386:2399  requests[idx] */\n              dup1\n                /* \"campaign.sol\":2395:2398  idx */\n              dup3\n                /* \"campaign.sol\":2386:2399  requests[idx] */\n              dup2\n              mstore\n              0x20\n              add\n              swap1\n              dup2\n              mstore\n              0x20\n              add\n              0x00\n              keccak256\n                /* \"campaign.sol\":2386:2408  requests[idx].complete */\n              0x02\n              add\n              0x14\n              swap1\n              sload\n              swap1\n              0x0100\n              exp\n              swap1\n              div\n              0xff\n              and\n                /* \"campaign.sol\":2385:2408  !requests[idx].complete */\n              iszero\n                /* \"campaign.sol\":2377:2409  require(!requests[idx].complete) */\n              tag_73\n              jumpi\n              0x00\n              dup1\n              revert\n            tag_73:\n                /* \"campaign.sol\":2422:2442  uint sufficientvotes */\n              0x00\n                /* \"campaign.sol\":2457:2458  2 */\n              0x02\n                /* \"campaign.sol\":2444:2456  approverscnt */\n              sload(0x04)\n                /* \"campaign.sol\":2444:2458  approverscnt/2 */\n              tag_74\n              swap2\n              swap1\n              tag_75\n              jump\t// in\n            tag_74:\n                /* \"campaign.sol\":2422:2458  uint sufficientvotes= approverscnt/2 */\n              swap1\n              pop\n                /* \"campaign.sol\":2505:2520  sufficientvotes */\n              dup1\n                /* \"campaign.sol\":2479:2487  requests */\n              0x00\n                /* \"campaign.sol\":2479:2492  requests[idx] */\n              dup1\n                /* \"campaign.sol\":2488:2491  idx */\n              dup5\n                /* \"campaign.sol\":2479:2492  requests[idx] */\n              dup2\n              mstore\n              0x20\n              add\n              swap1\n              dup2\n              mstore\n              0x20\n              add\n              0x00\n              keccak256\n                /* \"campaign.sol\":2479:2501  requests[idx].yesvotes */\n              0x03\n              add\n              sload\n                /* \"campaign.sol\":2479:2520  requests[idx].yesvotes >= sufficientvotes */\n              lt\n              iszero\n                /* \"campaign.sol\":2471:2521  require(requests[idx].yesvotes >= sufficientvotes) */\n              tag_76\n              jumpi\n              0x00\n              dup1\n              revert\n            tag_76:\n                /* \"campaign.sol\":2548:2556  requests */\n              0x00\n                /* \"campaign.sol\":2548:2561  requests[idx] */\n              dup1\n                /* \"campaign.sol\":2557:2560  idx */\n              dup4\n                /* \"campaign.sol\":2548:2561  requests[idx] */\n              dup2\n              mstore\n              0x20\n              add\n              swap1\n              dup2\n              mstore\n              0x20\n              add\n              0x00\n              keccak256\n                /* \"campaign.sol\":2548:2571  requests[idx].recipient */\n              0x02\n              add\n              0x00\n              swap1\n              sload\n              swap1\n              0x0100\n              exp\n              swap1\n              div\n              0xffffffffffffffffffffffffffffffffffffffff\n              and\n                /* \"campaign.sol\":2540:2581  payable(requests[idx].recipient).transfer */\n              0xffffffffffffffffffffffffffffffffffffffff\n              and\n                /* \"campaign.sol\":2540:2602  payable(requests[idx].recipient).transfer(requests[idx].value) */\n              0x08fc\n                /* \"campaign.sol\":2582:2590  requests */\n              0x00\n                /* \"campaign.sol\":2582:2595  requests[idx] */\n              dup1\n                /* \"campaign.sol\":2591:2594  idx */\n              dup6\n                /* \"campaign.sol\":2582:2595  requests[idx] */\n              dup2\n              mstore\n              0x20\n              add\n              swap1\n              dup2\n              mstore\n              0x20\n              add\n              0x00\n              keccak256\n                /* \"campaign.sol\":2582:2601  requests[idx].value */\n              0x01\n              add\n              sload\n                /* \"campaign.sol\":2540:2602  payable(requests[idx].recipient).transfer(requests[idx].value) */\n              swap1\n              dup2\n              iszero\n              mul\n              swap1\n              mload(0x40)\n              0x00\n              mload(0x40)\n              dup1\n              dup4\n              sub\n              dup2\n              dup6\n              dup9\n              dup9\n              call\n              swap4\n              pop\n              pop\n              pop\n              pop\n              iszero\n              dup1\n              iszero\n              tag_78\n              jumpi\n              returndatasize\n              0x00\n              dup1\n              returndatacopy\n              revert(0x00, returndatasize)\n            tag_78:\n              pop\n                /* \"campaign.sol\":2639:2643  true */\n              0x01\n                /* \"campaign.sol\":2616:2624  requests */\n              0x00\n                /* \"campaign.sol\":2616:2629  requests[idx] */\n              dup1\n                /* \"campaign.sol\":2625:2628  idx */\n              dup5\n                /* \"campaign.sol\":2616:2629  requests[idx] */\n              dup2\n              mstore\n              0x20\n              add\n              swap1\n              dup2\n              mstore\n              0x20\n              add\n              0x00\n              keccak256\n                /* \"campaign.sol\":2616:2638  requests[idx].complete */\n              0x02\n              add\n              0x14\n                /* \"campaign.sol\":2616:2643  requests[idx].complete=true */\n              0x0100\n              exp\n              dup2\n              sload\n              dup2\n              0xff\n              mul\n              not\n              and\n              swap1\n              dup4\n              iszero\n              iszero\n              mul\n              or\n              swap1\n              sstore\n              pop\n                /* \"campaign.sol\":2364:2651  {... */\n              pop\n                /* \"campaign.sol\":2304:2651  function finalizeRequest(uint idx) public restricted payable{... */\n              pop\n              jump\t// out\n                /* \"campaign.sol\":814:855  mapping(address => bool) public approvers */\n            tag_23:\n              mstore(0x20, 0x03)\n              dup1\n              0x00\n              mstore\n              keccak256(0x00, 0x40)\n              0x00\n              swap2\n              pop\n              sload\n              swap1\n              0x0100\n              exp\n              swap1\n              div\n              0xff\n              and\n              dup2\n              jump\t// out\n                /* \"campaign.sol\":2762:3025  function getSummary() public view returns(uint, uint, uint, uint, address){... */\n            tag_28:\n                /* \"campaign.sol\":2804:2808  uint */\n              0x00\n                /* \"campaign.sol\":2810:2814  uint */\n              dup1\n                /* \"campaign.sol\":2816:2820  uint */\n              0x00\n                /* \"campaign.sol\":2822:2826  uint */\n              dup1\n                /* \"campaign.sol\":2828:2835  address */\n              0x00\n                /* \"campaign.sol\":2871:2886  minContribution */\n              sload(0x02)\n                /* \"campaign.sol\":2903:2920  contractBalance() */\n              tag_80\n                /* \"campaign.sol\":2903:2918  contractBalance */\n              tag_49\n                /* \"campaign.sol\":2903:2920  contractBalance() */\n              jump\t// in\n            tag_80:\n                /* \"campaign.sol\":2937:2951  noOfRequests() */\n              tag_81\n                /* \"campaign.sol\":2937:2949  noOfRequests */\n              tag_58\n                /* \"campaign.sol\":2937:2951  noOfRequests() */\n              jump\t// in\n            tag_81:\n                /* \"campaign.sol\":2968:2980  approverscnt */\n              sload(0x04)\n                /* \"campaign.sol\":2997:3004  manager */\n              0x01\n              0x00\n              swap1\n              sload\n              swap1\n              0x0100\n              exp\n              swap1\n              div\n              0xffffffffffffffffffffffffffffffffffffffff\n              and\n                /* \"campaign.sol\":2849:3015  return (... */\n              swap5\n              pop\n              swap5\n              pop\n              swap5\n              pop\n              swap5\n              pop\n              swap5\n              pop\n                /* \"campaign.sol\":2762:3025  function getSummary() public view returns(uint, uint, uint, uint, address){... */\n              swap1\n              swap2\n              swap3\n              swap4\n              swap5\n              jump\t// out\n                /* \"campaign.sol\":750:772  address public manager */\n            tag_33:\n              0x01\n              0x00\n              swap1\n              sload\n              swap1\n              0x0100\n              exp\n              swap1\n              div\n              0xffffffffffffffffffffffffffffffffffffffff\n              and\n              dup2\n              jump\t// out\n                /* \"campaign.sol\":702:743  mapping (uint => Request) public requests */\n            tag_39:\n              mstore(0x20, 0x00)\n              dup1\n              0x00\n              mstore\n              keccak256(0x00, 0x40)\n              0x00\n              swap2\n              pop\n              swap1\n              pop\n              dup1\n              0x00\n              add\n              dup1\n              sload\n              tag_82\n              swap1\n              tag_83\n              jump\t// in\n            tag_82:\n              dup1\n              0x1f\n              add\n              0x20\n              dup1\n              swap2\n              div\n              mul\n              0x20\n              add\n              mload(0x40)\n              swap1\n              dup2\n              add\n              0x40\n              mstore\n              dup1\n              swap3\n              swap2\n              swap1\n              dup2\n              dup2\n              mstore\n              0x20\n              add\n              dup3\n              dup1\n              sload\n              tag_84\n              swap1\n              tag_83\n              jump\t// in\n            tag_84:\n              dup1\n              iszero\n              tag_85\n              jumpi\n              dup1\n              0x1f\n              lt\n              tag_86\n              jumpi\n              0x0100\n              dup1\n              dup4\n              sload\n              div\n              mul\n              dup4\n              mstore\n              swap2\n              0x20\n              add\n              swap2\n              jump(tag_85)\n            tag_86:\n              dup3\n              add\n              swap2\n              swap1\n              0x00\n              mstore\n              keccak256(0x00, 0x20)\n              swap1\n            tag_87:\n              dup2\n              sload\n              dup2\n              mstore\n              swap1\n              0x01\n              add\n              swap1\n              0x20\n              add\n              dup1\n              dup4\n              gt\n              tag_87\n              jumpi\n              dup3\n              swap1\n              sub\n              0x1f\n              and\n              dup3\n              add\n              swap2\n            tag_85:\n              pop\n              pop\n              pop\n              pop\n              pop\n              swap1\n              dup1\n              0x01\n              add\n              sload\n              swap1\n              dup1\n              0x02\n              add\n              0x00\n              swap1\n              sload\n              swap1\n              0x0100\n              exp\n              swap1\n              div\n              0xffffffffffffffffffffffffffffffffffffffff\n              and\n              swap1\n              dup1\n              0x02\n              add\n              0x14\n              swap1\n              sload\n              swap1\n              0x0100\n              exp\n              swap1\n              div\n              0xff\n              and\n              swap1\n              dup1\n              0x03\n              add\n              sload\n              swap1\n              pop\n              dup6\n              jump\t// out\n                /* \"campaign.sol\":1440:1961  function createRequest(string memory desc,uint val,address rec) public restricted{... */\n            tag_46:\n                /* \"campaign.sol\":977:984  manager */\n              0x01\n              0x00\n              swap1\n              sload\n              swap1\n              0x0100\n              exp\n              swap1\n              div\n              0xffffffffffffffffffffffffffffffffffffffff\n              and\n                /* \"campaign.sol\":963:984  msg.sender == manager */\n              0xffffffffffffffffffffffffffffffffffffffff\n              and\n                /* \"campaign.sol\":963:973  msg.sender */\n              caller\n                /* \"campaign.sol\":963:984  msg.sender == manager */\n              0xffffffffffffffffffffffffffffffffffffffff\n              and\n              eq\n                /* \"campaign.sol\":955:985  require(msg.sender == manager) */\n              tag_89\n              jumpi\n              0x00\n              dup1\n              revert\n            tag_89:\n                /* \"campaign.sol\":1542:1565  Request storage  newReq */\n              0x00\n                /* \"campaign.sol\":1567:1575  requests */\n              dup1\n                /* \"campaign.sol\":1567:1589  requests[requestidx++] */\n              0x00\n                /* \"campaign.sol\":1576:1586  requestidx */\n              0x05\n              0x00\n                /* \"campaign.sol\":1576:1588  requestidx++ */\n              dup2\n              sload\n              dup1\n              swap3\n              swap2\n              swap1\n              tag_91\n              swap1\n              tag_92\n              jump\t// in\n            tag_91:\n              swap2\n              swap1\n              pop\n              sstore\n                /* \"campaign.sol\":1567:1589  requests[requestidx++] */\n              dup2\n              mstore\n              0x20\n              add\n              swap1\n              dup2\n              mstore\n              0x20\n              add\n              0x00\n              keccak256\n                /* \"campaign.sol\":1542:1589  Request storage  newReq =requests[requestidx++] */\n              swap1\n              pop\n                /* \"campaign.sol\":1652:1656  desc */\n              dup4\n                /* \"campaign.sol\":1631:1637  newReq */\n              dup2\n                /* \"campaign.sol\":1631:1649  newReq.description */\n              0x00\n              add\n                /* \"campaign.sol\":1631:1656  newReq.description = desc */\n              swap1\n              dup1\n              mload\n              swap1\n              0x20\n              add\n              swap1\n              tag_93\n              swap3\n              swap2\n              swap1\n              tag_94\n              jump\t// in\n            tag_93:\n              pop\n                /* \"campaign.sol\":1684:1687  val */\n              dup3\n                /* \"campaign.sol\":1671:1677  newReq */\n              dup2\n                /* \"campaign.sol\":1671:1683  newReq.value */\n              0x01\n              add\n                /* \"campaign.sol\":1671:1687  newReq.value=val */\n              dup2\n              swap1\n              sstore\n              pop\n                /* \"campaign.sol\":1719:1722  rec */\n              dup2\n                /* \"campaign.sol\":1702:1708  newReq */\n              dup2\n                /* \"campaign.sol\":1702:1718  newReq.recipient */\n              0x02\n              add\n              0x00\n                /* \"campaign.sol\":1702:1722  newReq.recipient=rec */\n              0x0100\n              exp\n              dup2\n              sload\n              dup2\n              0xffffffffffffffffffffffffffffffffffffffff\n              mul\n              not\n              and\n              swap1\n              dup4\n              0xffffffffffffffffffffffffffffffffffffffff\n              and\n              mul\n              or\n              swap1\n              sstore\n              pop\n                /* \"campaign.sol\":1753:1758  false */\n              0x00\n                /* \"campaign.sol\":1737:1743  newReq */\n              dup2\n                /* \"campaign.sol\":1737:1752  newReq.complete */\n              0x02\n              add\n              0x14\n                /* \"campaign.sol\":1737:1758  newReq.complete=false */\n              0x0100\n              exp\n              dup2\n              sload\n              dup2\n              0xff\n              mul\n              not\n              and\n              swap1\n              dup4\n              iszero\n              iszero\n              mul\n              or\n              swap1\n              sstore\n              pop\n                /* \"campaign.sol\":1789:1790  0 */\n              0x00\n                /* \"campaign.sol\":1773:1779  newReq */\n              dup2\n                /* \"campaign.sol\":1773:1788  newReq.yesvotes */\n              0x03\n              add\n                /* \"campaign.sol\":1773:1790  newReq.yesvotes=0 */\n              dup2\n              swap1\n              sstore\n              pop\n                /* \"campaign.sol\":1521:1961  {... */\n              pop\n                /* \"campaign.sol\":1440:1961  function createRequest(string memory desc,uint val,address rec) public restricted{... */\n              pop\n              pop\n              pop\n              jump\t// out\n                /* \"campaign.sol\":1166:1256  function contractBalance() public view returns(uint) {... */\n            tag_49:\n                /* \"campaign.sol\":1213:1217  uint */\n              0x00\n                /* \"campaign.sol\":1231:1252  address(this).balance */\n              selfbalance\n                /* \"campaign.sol\":1224:1252  return address(this).balance */\n              swap1\n              pop\n                /* \"campaign.sol\":1166:1256  function contractBalance() public view returns(uint) {... */\n              swap1\n              jump\t// out\n                /* \"campaign.sol\":779:806  uint public minContribution */\n            tag_54:\n              sload(0x02)\n              dup2\n              jump\t// out\n                /* \"campaign.sol\":2665:2754  function noOfRequests() public view returns (uint) {... */\n            tag_58:\n                /* \"campaign.sol\":2710:2714  uint */\n              0x00\n                /* \"campaign.sol\":2736:2746  requestidx */\n              sload(0x05)\n                /* \"campaign.sol\":2729:2746  return requestidx */\n              swap1\n              pop\n                /* \"campaign.sol\":2665:2754  function noOfRequests() public view returns (uint) {... */\n              swap1\n              jump\t// out\n                /* \"campaign.sol\":862:886  uint public approverscnt */\n            tag_62:\n              sload(0x04)\n              dup2\n              jump\t// out\n                /* \"campaign.sol\":1264:1432  function contribute() public payable{... */\n            tag_65:\n                /* \"campaign.sol\":1333:1348  minContribution */\n              sload(0x02)\n                /* \"campaign.sol\":1321:1330  msg.value */\n              callvalue\n                /* \"campaign.sol\":1321:1348  msg.value > minContribution */\n              gt\n                /* \"campaign.sol\":1313:1349  require(msg.value > minContribution) */\n              tag_98\n              jumpi\n              0x00\n              dup1\n              revert\n            tag_98:\n                /* \"campaign.sol\":1393:1397  true */\n              0x01\n                /* \"campaign.sol\":1370:1379  approvers */\n              0x03\n                /* \"campaign.sol\":1370:1391  approvers[msg.sender] */\n              0x00\n                /* \"campaign.sol\":1380:1390  msg.sender */\n              caller\n                /* \"campaign.sol\":1370:1391  approvers[msg.sender] */\n              0xffffffffffffffffffffffffffffffffffffffff\n              and\n              0xffffffffffffffffffffffffffffffffffffffff\n              and\n              dup2\n              mstore\n              0x20\n              add\n              swap1\n              dup2\n              mstore\n              0x20\n              add\n              0x00\n              keccak256\n              0x00\n                /* \"campaign.sol\":1370:1397  approvers[msg.sender]= true */\n              0x0100\n              exp\n              dup2\n              sload\n              dup2\n              0xff\n              mul\n              not\n              and\n              swap1\n              dup4\n              iszero\n              iszero\n              mul\n              or\n              swap1\n              sstore\n              pop\n                /* \"campaign.sol\":1410:1422  approverscnt */\n              0x04\n              0x00\n                /* \"campaign.sol\":1410:1424  approverscnt++ */\n              dup2\n              sload\n              dup1\n              swap3\n              swap2\n              swap1\n              tag_99\n              swap1\n              tag_92\n              jump\t// in\n            tag_99:\n              swap2\n              swap1\n              pop\n              sstore\n              pop\n                /* \"campaign.sol\":1264:1432  function contribute() public payable{... */\n              jump\t// out\n                /* \"campaign.sol\":1969:2296  function approveRequest(uint index) public{... */\n            tag_69:\n                /* \"campaign.sol\":2069:2078  approvers */\n              0x03\n                /* \"campaign.sol\":2069:2090  approvers[msg.sender] */\n              0x00\n                /* \"campaign.sol\":2079:2089  msg.sender */\n              caller\n                /* \"campaign.sol\":2069:2090  approvers[msg.sender] */\n              0xffffffffffffffffffffffffffffffffffffffff\n              and\n              0xffffffffffffffffffffffffffffffffffffffff\n              and\n              dup2\n              mstore\n              0x20\n              add\n              swap1\n              dup2\n              mstore\n              0x20\n              add\n              0x00\n              keccak256\n              0x00\n              swap1\n              sload\n              swap1\n              0x0100\n              exp\n              swap1\n              div\n              0xff\n              and\n                /* \"campaign.sol\":2061:2091  require(approvers[msg.sender]) */\n              tag_101\n              jumpi\n              0x00\n              dup1\n              revert\n            tag_101:\n                /* \"campaign.sol\":2156:2164  requests */\n              0x00\n                /* \"campaign.sol\":2156:2171  requests[index] */\n              dup1\n                /* \"campaign.sol\":2165:2170  index */\n              dup3\n                /* \"campaign.sol\":2156:2171  requests[index] */\n              dup2\n              mstore\n              0x20\n              add\n              swap1\n              dup2\n              mstore\n              0x20\n              add\n              0x00\n              keccak256\n                /* \"campaign.sol\":2156:2181  requests[index].approvals */\n              0x04\n              add\n                /* \"campaign.sol\":2156:2193  requests[index].approvals[msg.sender] */\n              0x00\n                /* \"campaign.sol\":2182:2192  msg.sender */\n              caller\n                /* \"campaign.sol\":2156:2193  requests[index].approvals[msg.sender] */\n              0xffffffffffffffffffffffffffffffffffffffff\n              and\n              0xffffffffffffffffffffffffffffffffffffffff\n              and\n              dup2\n              mstore\n              0x20\n              add\n              swap1\n              dup2\n              mstore\n              0x20\n              add\n              0x00\n              keccak256\n              0x00\n              swap1\n              sload\n              swap1\n              0x0100\n              exp\n              swap1\n              div\n              0xff\n              and\n                /* \"campaign.sol\":2155:2193  !requests[index].approvals[msg.sender] */\n              iszero\n                /* \"campaign.sol\":2147:2194  require(!requests[index].approvals[msg.sender]) */\n              tag_102\n              jumpi\n              0x00\n              dup1\n              revert\n            tag_102:\n                /* \"campaign.sol\":2245:2249  true */\n              0x01\n                /* \"campaign.sol\":2207:2215  requests */\n              0x00\n                /* \"campaign.sol\":2207:2222  requests[index] */\n              dup1\n                /* \"campaign.sol\":2216:2221  index */\n              dup4\n                /* \"campaign.sol\":2207:2222  requests[index] */\n              dup2\n              mstore\n              0x20\n              add\n              swap1\n              dup2\n              mstore\n              0x20\n              add\n              0x00\n              keccak256\n                /* \"campaign.sol\":2207:2232  requests[index].approvals */\n              0x04\n              add\n                /* \"campaign.sol\":2207:2244  requests[index].approvals[msg.sender] */\n              0x00\n                /* \"campaign.sol\":2233:2243  msg.sender */\n              caller\n                /* \"campaign.sol\":2207:2244  requests[index].approvals[msg.sender] */\n              0xffffffffffffffffffffffffffffffffffffffff\n              and\n              0xffffffffffffffffffffffffffffffffffffffff\n              and\n              dup2\n              mstore\n              0x20\n              add\n              swap1\n              dup2\n              mstore\n              0x20\n              add\n              0x00\n              keccak256\n              0x00\n                /* \"campaign.sol\":2207:2249  requests[index].approvals[msg.sender]=true */\n              0x0100\n              exp\n              dup2\n              sload\n              dup2\n              0xff\n              mul\n              not\n              and\n              swap1\n              dup4\n              iszero\n              iszero\n              mul\n              or\n              swap1\n              sstore\n              pop\n                /* \"campaign.sol\":2260:2268  requests */\n              0x00\n                /* \"campaign.sol\":2260:2275  requests[index] */\n              dup1\n                /* \"campaign.sol\":2269:2274  index */\n              dup3\n                /* \"campaign.sol\":2260:2275  requests[index] */\n              dup2\n              mstore\n              0x20\n              add\n              swap1\n              dup2\n              mstore\n              0x20\n              add\n              0x00\n              keccak256\n                /* \"campaign.sol\":2260:2284  requests[index].yesvotes */\n              0x03\n              add\n              0x00\n                /* \"campaign.sol\":2260:2286  requests[index].yesvotes++ */\n              dup2\n              sload\n              dup1\n              swap3\n              swap2\n              swap1\n              tag_103\n              swap1\n              tag_92\n              jump\t// in\n            tag_103:\n              swap2\n              swap1\n              pop\n              sstore\n              pop\n                /* \"campaign.sol\":1969:2296  function approveRequest(uint index) public{... */\n              pop\n              jump\t// out\n            tag_94:\n              dup3\n              dup1\n              sload\n              tag_104\n              swap1\n              tag_83\n              jump\t// in\n            tag_104:\n              swap1\n              0x00\n              mstore\n              keccak256(0x00, 0x20)\n              swap1\n              0x1f\n              add\n              0x20\n              swap1\n              div\n              dup2\n              add\n              swap3\n              dup3\n              tag_106\n              jumpi\n              0x00\n              dup6\n              sstore\n              jump(tag_105)\n            tag_106:\n              dup3\n              0x1f\n              lt\n              tag_107\n              jumpi\n              dup1\n              mload\n              not(0xff)\n              and\n              dup4\n              dup1\n              add\n              or\n              dup6\n              sstore\n              jump(tag_105)\n            tag_107:\n              dup3\n              dup1\n              add\n              0x01\n              add\n              dup6\n              sstore\n              dup3\n              iszero\n              tag_105\n              jumpi\n              swap2\n              dup3\n              add\n            tag_108:\n              dup3\n              dup2\n              gt\n              iszero\n              tag_109\n              jumpi\n              dup3\n              mload\n              dup3\n              sstore\n              swap2\n              0x20\n              add\n              swap2\n              swap1\n              0x01\n              add\n              swap1\n              jump(tag_108)\n            tag_109:\n            tag_105:\n              pop\n              swap1\n              pop\n              tag_110\n              swap2\n              swap1\n              tag_111\n              jump\t// in\n            tag_110:\n              pop\n              swap1\n              jump\t// out\n            tag_111:\n            tag_112:\n              dup1\n              dup3\n              gt\n              iszero\n              tag_113\n              jumpi\n              0x00\n              dup2\n              0x00\n              swap1\n              sstore\n              pop\n              0x01\n              add\n              jump(tag_112)\n            tag_113:\n              pop\n              swap1\n              jump\t// out\n                /* \"#utility.yul\":7:82   */\n            tag_114:\n                /* \"#utility.yul\":40:46   */\n              0x00\n                /* \"#utility.yul\":73:75   */\n              0x40\n                /* \"#utility.yul\":67:76   */\n              mload\n                /* \"#utility.yul\":57:76   */\n              swap1\n              pop\n                /* \"#utility.yul\":7:82   */\n              swap1\n              jump\t// out\n                /* \"#utility.yul\":88:205   */\n            tag_115:\n                /* \"#utility.yul\":197:198   */\n              0x00\n                /* \"#utility.yul\":194:195   */\n              dup1\n                /* \"#utility.yul\":187:199   */\n              revert\n                /* \"#utility.yul\":211:328   */\n            tag_116:\n                /* \"#utility.yul\":320:321   */\n              0x00\n                /* \"#utility.yul\":317:318   */\n              dup1\n                /* \"#utility.yul\":310:322   */\n              revert\n                /* \"#utility.yul\":334:411   */\n            tag_117:\n                /* \"#utility.yul\":371:378   */\n              0x00\n                /* \"#utility.yul\":400:405   */\n              dup2\n                /* \"#utility.yul\":389:405   */\n              swap1\n              pop\n                /* \"#utility.yul\":334:411   */\n              swap2\n              swap1\n              pop\n              jump\t// out\n                /* \"#utility.yul\":417:539   */\n            tag_118:\n                /* \"#utility.yul\":490:514   */\n              tag_151\n                /* \"#utility.yul\":508:513   */\n              dup2\n                /* \"#utility.yul\":490:514   */\n              tag_117\n              jump\t// in\n            tag_151:\n                /* \"#utility.yul\":483:488   */\n              dup2\n                /* \"#utility.yul\":480:515   */\n              eq\n                /* \"#utility.yul\":470:533   */\n              tag_152\n              jumpi\n                /* \"#utility.yul\":529:530   */\n              0x00\n                /* \"#utility.yul\":526:527   */\n              dup1\n                /* \"#utility.yul\":519:531   */\n              revert\n                /* \"#utility.yul\":470:533   */\n            tag_152:\n                /* \"#utility.yul\":417:539   */\n              pop\n              jump\t// out\n                /* \"#utility.yul\":545:684   */\n            tag_119:\n                /* \"#utility.yul\":591:596   */\n              0x00\n                /* \"#utility.yul\":629:635   */\n              dup2\n                /* \"#utility.yul\":616:636   */\n              calldataload\n                /* \"#utility.yul\":607:636   */\n              swap1\n              pop\n                /* \"#utility.yul\":645:678   */\n              tag_154\n                /* \"#utility.yul\":672:677   */\n              dup2\n                /* \"#utility.yul\":645:678   */\n              tag_118\n              jump\t// in\n            tag_154:\n                /* \"#utility.yul\":545:684   */\n              swap3\n              swap2\n              pop\n              pop\n              jump\t// out\n                /* \"#utility.yul\":690:1019   */\n            tag_17:\n                /* \"#utility.yul\":749:755   */\n              0x00\n                /* \"#utility.yul\":798:800   */\n              0x20\n                /* \"#utility.yul\":786:795   */\n              dup3\n                /* \"#utility.yul\":777:784   */\n              dup5\n                /* \"#utility.yul\":773:796   */\n              sub\n                /* \"#utility.yul\":769:801   */\n              slt\n                /* \"#utility.yul\":766:885   */\n              iszero\n              tag_156\n              jumpi\n                /* \"#utility.yul\":804:883   */\n              tag_157\n              tag_115\n              jump\t// in\n            tag_157:\n                /* \"#utility.yul\":766:885   */\n            tag_156:\n                /* \"#utility.yul\":924:925   */\n              0x00\n                /* \"#utility.yul\":949:1002   */\n              tag_158\n                /* \"#utility.yul\":994:1001   */\n              dup5\n                /* \"#utility.yul\":985:991   */\n              dup3\n                /* \"#utility.yul\":974:983   */\n              dup6\n                /* \"#utility.yul\":970:992   */\n              add\n                /* \"#utility.yul\":949:1002   */\n              tag_119\n              jump\t// in\n            tag_158:\n                /* \"#utility.yul\":939:1002   */\n              swap2\n              pop\n                /* \"#utility.yul\":895:1012   */\n              pop\n                /* \"#utility.yul\":690:1019   */\n              swap3\n              swap2\n              pop\n              pop\n              jump\t// out\n                /* \"#utility.yul\":1025:1151   */\n            tag_120:\n                /* \"#utility.yul\":1062:1069   */\n              0x00\n                /* \"#utility.yul\":1102:1144   */\n              0xffffffffffffffffffffffffffffffffffffffff\n                /* \"#utility.yul\":1095:1100   */\n              dup3\n                /* \"#utility.yul\":1091:1145   */\n              and\n                /* \"#utility.yul\":1080:1145   */\n              swap1\n              pop\n                /* \"#utility.yul\":1025:1151   */\n              swap2\n              swap1\n              pop\n              jump\t// out\n                /* \"#utility.yul\":1157:1253   */\n            tag_121:\n                /* \"#utility.yul\":1194:1201   */\n              0x00\n                /* \"#utility.yul\":1223:1247   */\n              tag_161\n                /* \"#utility.yul\":1241:1246   */\n              dup3\n                /* \"#utility.yul\":1223:1247   */\n              tag_120\n              jump\t// in\n            tag_161:\n                /* \"#utility.yul\":1212:1247   */\n              swap1\n              pop\n                /* \"#utility.yul\":1157:1253   */\n              swap2\n              swap1\n              pop\n              jump\t// out\n                /* \"#utility.yul\":1259:1381   */\n            tag_122:\n                /* \"#utility.yul\":1332:1356   */\n              tag_163\n                /* \"#utility.yul\":1350:1355   */\n              dup2\n                /* \"#utility.yul\":1332:1356   */\n              tag_121\n              jump\t// in\n            tag_163:\n                /* \"#utility.yul\":1325:1330   */\n              dup2\n                /* \"#utility.yul\":1322:1357   */\n              eq\n                /* \"#utility.yul\":1312:1375   */\n              tag_164\n              jumpi\n                /* \"#utility.yul\":1371:1372   */\n              0x00\n                /* \"#utility.yul\":1368:1369   */\n              dup1\n                /* \"#utility.yul\":1361:1373   */\n              revert\n                /* \"#utility.yul\":1312:1375   */\n            tag_164:\n                /* \"#utility.yul\":1259:1381   */\n              pop\n              jump\t// out\n                /* \"#utility.yul\":1387:1526   */\n            tag_123:\n                /* \"#utility.yul\":1433:1438   */\n              0x00\n                /* \"#utility.yul\":1471:1477   */\n              dup2\n                /* \"#utility.yul\":1458:1478   */\n              calldataload\n                /* \"#utility.yul\":1449:1478   */\n              swap1\n              pop\n                /* \"#utility.yul\":1487:1520   */\n              tag_166\n                /* \"#utility.yul\":1514:1519   */\n              dup2\n                /* \"#utility.yul\":1487:1520   */\n              tag_122\n              jump\t// in\n            tag_166:\n                /* \"#utility.yul\":1387:1526   */\n              swap3\n              swap2\n              pop\n              pop\n              jump\t// out\n                /* \"#utility.yul\":1532:1861   */\n            tag_22:\n                /* \"#utility.yul\":1591:1597   */\n              0x00\n                /* \"#utility.yul\":1640:1642   */\n              0x20\n                /* \"#utility.yul\":1628:1637   */\n              dup3\n                /* \"#utility.yul\":1619:1626   */\n              dup5\n                /* \"#utility.yul\":1615:1638   */\n              sub\n                /* \"#utility.yul\":1611:1643   */\n              slt\n                /* \"#utility.yul\":1608:1727   */\n              iszero\n              tag_168\n              jumpi\n                /* \"#utility.yul\":1646:1725   */\n              tag_169\n              tag_115\n              jump\t// in\n            tag_169:\n                /* \"#utility.yul\":1608:1727   */\n            tag_168:\n                /* \"#utility.yul\":1766:1767   */\n              0x00\n                /* \"#utility.yul\":1791:1844   */\n              tag_170\n                /* \"#utility.yul\":1836:1843   */\n              dup5\n                /* \"#utility.yul\":1827:1833   */\n              dup3\n                /* \"#utility.yul\":1816:1825   */\n              dup6\n                /* \"#utility.yul\":1812:1834   */\n              add\n                /* \"#utility.yul\":1791:1844   */\n              tag_123\n              jump\t// in\n            tag_170:\n                /* \"#utility.yul\":1781:1844   */\n              swap2\n              pop\n                /* \"#utility.yul\":1737:1854   */\n              pop\n                /* \"#utility.yul\":1532:1861   */\n              swap3\n              swap2\n              pop\n              pop\n              jump\t// out\n                /* \"#utility.yul\":1867:1957   */\n            tag_124:\n                /* \"#utility.yul\":1901:1908   */\n              0x00\n                /* \"#utility.yul\":1944:1949   */\n              dup2\n                /* \"#utility.yul\":1937:1950   */\n              iszero\n                /* \"#utility.yul\":1930:1951   */\n              iszero\n                /* \"#utility.yul\":1919:1951   */\n              swap1\n              pop\n                /* \"#utility.yul\":1867:1957   */\n              swap2\n              swap1\n              pop\n              jump\t// out\n                /* \"#utility.yul\":1963:2072   */\n            tag_125:\n                /* \"#utility.yul\":2044:2065   */\n              tag_173\n                /* \"#utility.yul\":2059:2064   */\n              dup2\n                /* \"#utility.yul\":2044:2065   */\n              tag_124\n              jump\t// in\n            tag_173:\n                /* \"#utility.yul\":2039:2042   */\n              dup3\n                /* \"#utility.yul\":2032:2066   */\n              mstore\n                /* \"#utility.yul\":1963:2072   */\n              pop\n              pop\n              jump\t// out\n                /* \"#utility.yul\":2078:2288   */\n            tag_25:\n                /* \"#utility.yul\":2165:2169   */\n              0x00\n                /* \"#utility.yul\":2203:2205   */\n              0x20\n                /* \"#utility.yul\":2192:2201   */\n              dup3\n                /* \"#utility.yul\":2188:2206   */\n              add\n                /* \"#utility.yul\":2180:2206   */\n              swap1\n              pop\n                /* \"#utility.yul\":2216:2281   */\n              tag_175\n                /* \"#utility.yul\":2278:2279   */\n              0x00\n                /* \"#utility.yul\":2267:2276   */\n              dup4\n                /* \"#utility.yul\":2263:2280   */\n              add\n                /* \"#utility.yul\":2254:2260   */\n              dup5\n                /* \"#utility.yul\":2216:2281   */\n              tag_125\n              jump\t// in\n            tag_175:\n                /* \"#utility.yul\":2078:2288   */\n              swap3\n              swap2\n              pop\n              pop\n              jump\t// out\n                /* \"#utility.yul\":2294:2412   */\n            tag_126:\n                /* \"#utility.yul\":2381:2405   */\n              tag_177\n                /* \"#utility.yul\":2399:2404   */\n              dup2\n                /* \"#utility.yul\":2381:2405   */\n              tag_117\n              jump\t// in\n            tag_177:\n                /* \"#utility.yul\":2376:2379   */\n              dup3\n                /* \"#utility.yul\":2369:2406   */\n              mstore\n                /* \"#utility.yul\":2294:2412   */\n              pop\n              pop\n              jump\t// out\n                /* \"#utility.yul\":2418:2536   */\n            tag_127:\n                /* \"#utility.yul\":2505:2529   */\n              tag_179\n                /* \"#utility.yul\":2523:2528   */\n              dup2\n                /* \"#utility.yul\":2505:2529   */\n              tag_121\n              jump\t// in\n            tag_179:\n                /* \"#utility.yul\":2500:2503   */\n              dup3\n                /* \"#utility.yul\":2493:2530   */\n              mstore\n                /* \"#utility.yul\":2418:2536   */\n              pop\n              pop\n              jump\t// out\n                /* \"#utility.yul\":2542:3206   */\n            tag_30:\n                /* \"#utility.yul\":2747:2751   */\n              0x00\n                /* \"#utility.yul\":2785:2788   */\n              0xa0\n                /* \"#utility.yul\":2774:2783   */\n              dup3\n                /* \"#utility.yul\":2770:2789   */\n              add\n                /* \"#utility.yul\":2762:2789   */\n              swap1\n              pop\n                /* \"#utility.yul\":2799:2870   */\n              tag_181\n                /* \"#utility.yul\":2867:2868   */\n              0x00\n                /* \"#utility.yul\":2856:2865   */\n              dup4\n                /* \"#utility.yul\":2852:2869   */\n              add\n                /* \"#utility.yul\":2843:2849   */\n              dup9\n                /* \"#utility.yul\":2799:2870   */\n              tag_126\n              jump\t// in\n            tag_181:\n                /* \"#utility.yul\":2880:2952   */\n              tag_182\n                /* \"#utility.yul\":2948:2950   */\n              0x20\n                /* \"#utility.yul\":2937:2946   */\n              dup4\n                /* \"#utility.yul\":2933:2951   */\n              add\n                /* \"#utility.yul\":2924:2930   */\n              dup8\n                /* \"#utility.yul\":2880:2952   */\n              tag_126\n              jump\t// in\n            tag_182:\n                /* \"#utility.yul\":2962:3034   */\n              tag_183\n                /* \"#utility.yul\":3030:3032   */\n              0x40\n                /* \"#utility.yul\":3019:3028   */\n              dup4\n                /* \"#utility.yul\":3015:3033   */\n              add\n                /* \"#utility.yul\":3006:3012   */\n              dup7\n                /* \"#utility.yul\":2962:3034   */\n              tag_126\n              jump\t// in\n            tag_183:\n                /* \"#utility.yul\":3044:3116   */\n              tag_184\n                /* \"#utility.yul\":3112:3114   */\n              0x60\n                /* \"#utility.yul\":3101:3110   */\n              dup4\n                /* \"#utility.yul\":3097:3115   */\n              add\n                /* \"#utility.yul\":3088:3094   */\n              dup6\n                /* \"#utility.yul\":3044:3116   */\n              tag_126\n              jump\t// in\n            tag_184:\n                /* \"#utility.yul\":3126:3199   */\n              tag_185\n                /* \"#utility.yul\":3194:3197   */\n              0x80\n                /* \"#utility.yul\":3183:3192   */\n              dup4\n                /* \"#utility.yul\":3179:3198   */\n              add\n                /* \"#utility.yul\":3170:3176   */\n              dup5\n                /* \"#utility.yul\":3126:3199   */\n              tag_127\n              jump\t// in\n            tag_185:\n                /* \"#utility.yul\":2542:3206   */\n              swap7\n              swap6\n              pop\n              pop\n              pop\n              pop\n              pop\n              pop\n              jump\t// out\n                /* \"#utility.yul\":3212:3434   */\n            tag_35:\n                /* \"#utility.yul\":3305:3309   */\n              0x00\n                /* \"#utility.yul\":3343:3345   */\n              0x20\n                /* \"#utility.yul\":3332:3341   */\n              dup3\n                /* \"#utility.yul\":3328:3346   */\n              add\n                /* \"#utility.yul\":3320:3346   */\n              swap1\n              pop\n                /* \"#utility.yul\":3356:3427   */\n              tag_187\n                /* \"#utility.yul\":3424:3425   */\n              0x00\n                /* \"#utility.yul\":3413:3422   */\n              dup4\n                /* \"#utility.yul\":3409:3426   */\n              add\n                /* \"#utility.yul\":3400:3406   */\n              dup5\n                /* \"#utility.yul\":3356:3427   */\n              tag_127\n              jump\t// in\n            tag_187:\n                /* \"#utility.yul\":3212:3434   */\n              swap3\n              swap2\n              pop\n              pop\n              jump\t// out\n                /* \"#utility.yul\":3440:3539   */\n            tag_128:\n                /* \"#utility.yul\":3492:3498   */\n              0x00\n                /* \"#utility.yul\":3526:3531   */\n              dup2\n                /* \"#utility.yul\":3520:3532   */\n              mload\n                /* \"#utility.yul\":3510:3532   */\n              swap1\n              pop\n                /* \"#utility.yul\":3440:3539   */\n              swap2\n              swap1\n              pop\n              jump\t// out\n                /* \"#utility.yul\":3545:3714   */\n            tag_129:\n                /* \"#utility.yul\":3629:3640   */\n              0x00\n                /* \"#utility.yul\":3663:3669   */\n              dup3\n                /* \"#utility.yul\":3658:3661   */\n              dup3\n                /* \"#utility.yul\":3651:3670   */\n              mstore\n                /* \"#utility.yul\":3703:3707   */\n              0x20\n                /* \"#utility.yul\":3698:3701   */\n              dup3\n                /* \"#utility.yul\":3694:3708   */\n              add\n                /* \"#utility.yul\":3679:3708   */\n              swap1\n              pop\n                /* \"#utility.yul\":3545:3714   */\n              swap3\n              swap2\n              pop\n              pop\n              jump\t// out\n                /* \"#utility.yul\":3720:4027   */\n            tag_130:\n                /* \"#utility.yul\":3788:3789   */\n              0x00\n                /* \"#utility.yul\":3798:3911   */\n            tag_191:\n                /* \"#utility.yul\":3812:3818   */\n              dup4\n                /* \"#utility.yul\":3809:3810   */\n              dup2\n                /* \"#utility.yul\":3806:3819   */\n              lt\n                /* \"#utility.yul\":3798:3911   */\n              iszero\n              tag_193\n              jumpi\n                /* \"#utility.yul\":3897:3898   */\n              dup1\n                /* \"#utility.yul\":3892:3895   */\n              dup3\n                /* \"#utility.yul\":3888:3899   */\n              add\n                /* \"#utility.yul\":3882:3900   */\n              mload\n                /* \"#utility.yul\":3878:3879   */\n              dup2\n                /* \"#utility.yul\":3873:3876   */\n              dup5\n                /* \"#utility.yul\":3869:3880   */\n              add\n                /* \"#utility.yul\":3862:3901   */\n              mstore\n                /* \"#utility.yul\":3834:3836   */\n              0x20\n                /* \"#utility.yul\":3831:3832   */\n              dup2\n                /* \"#utility.yul\":3827:3837   */\n              add\n                /* \"#utility.yul\":3822:3837   */\n              swap1\n              pop\n                /* \"#utility.yul\":3798:3911   */\n              jump(tag_191)\n            tag_193:\n                /* \"#utility.yul\":3929:3935   */\n              dup4\n                /* \"#utility.yul\":3926:3927   */\n              dup2\n                /* \"#utility.yul\":3923:3936   */\n              gt\n                /* \"#utility.yul\":3920:4021   */\n              iszero\n              tag_194\n              jumpi\n                /* \"#utility.yul\":4009:4010   */\n              0x00\n                /* \"#utility.yul\":4000:4006   */\n              dup5\n                /* \"#utility.yul\":3995:3998   */\n              dup5\n                /* \"#utility.yul\":3991:4007   */\n              add\n                /* \"#utility.yul\":3984:4011   */\n              mstore\n                /* \"#utility.yul\":3920:4021   */\n            tag_194:\n                /* \"#utility.yul\":3769:4027   */\n              pop\n                /* \"#utility.yul\":3720:4027   */\n              pop\n              pop\n              pop\n              jump\t// out\n                /* \"#utility.yul\":4033:4135   */\n            tag_131:\n                /* \"#utility.yul\":4074:4080   */\n              0x00\n                /* \"#utility.yul\":4125:4127   */\n              0x1f\n                /* \"#utility.yul\":4121:4128   */\n              not\n                /* \"#utility.yul\":4116:4118   */\n              0x1f\n                /* \"#utility.yul\":4109:4114   */\n              dup4\n                /* \"#utility.yul\":4105:4119   */\n              add\n                /* \"#utility.yul\":4101:4129   */\n              and\n                /* \"#utility.yul\":4091:4129   */\n              swap1\n              pop\n                /* \"#utility.yul\":4033:4135   */\n              swap2\n              swap1\n              pop\n              jump\t// out\n                /* \"#utility.yul\":4141:4505   */\n            tag_132:\n                /* \"#utility.yul\":4229:4232   */\n              0x00\n                /* \"#utility.yul\":4257:4296   */\n              tag_197\n                /* \"#utility.yul\":4290:4295   */\n              dup3\n                /* \"#utility.yul\":4257:4296   */\n              tag_128\n              jump\t// in\n            tag_197:\n                /* \"#utility.yul\":4312:4383   */\n              tag_198\n                /* \"#utility.yul\":4376:4382   */\n              dup2\n                /* \"#utility.yul\":4371:4374   */\n              dup6\n                /* \"#utility.yul\":4312:4383   */\n              tag_129\n              jump\t// in\n            tag_198:\n                /* \"#utility.yul\":4305:4383   */\n              swap4\n              pop\n                /* \"#utility.yul\":4392:4444   */\n              tag_199\n                /* \"#utility.yul\":4437:4443   */\n              dup2\n                /* \"#utility.yul\":4432:4435   */\n              dup6\n                /* \"#utility.yul\":4425:4429   */\n              0x20\n                /* \"#utility.yul\":4418:4423   */\n              dup7\n                /* \"#utility.yul\":4414:4430   */\n              add\n                /* \"#utility.yul\":4392:4444   */\n              tag_130\n              jump\t// in\n            tag_199:\n                /* \"#utility.yul\":4469:4498   */\n              tag_200\n                /* \"#utility.yul\":4491:4497   */\n              dup2\n                /* \"#utility.yul\":4469:4498   */\n              tag_131\n              jump\t// in\n            tag_200:\n                /* \"#utility.yul\":4464:4467   */\n              dup5\n                /* \"#utility.yul\":4460:4499   */\n              add\n                /* \"#utility.yul\":4453:4499   */\n              swap2\n              pop\n                /* \"#utility.yul\":4233:4505   */\n              pop\n                /* \"#utility.yul\":4141:4505   */\n              swap3\n              swap2\n              pop\n              pop\n              jump\t// out\n                /* \"#utility.yul\":4511:5254   */\n            tag_41:\n                /* \"#utility.yul\":4730:4734   */\n              0x00\n                /* \"#utility.yul\":4768:4771   */\n              0xa0\n                /* \"#utility.yul\":4757:4766   */\n              dup3\n                /* \"#utility.yul\":4753:4772   */\n              add\n                /* \"#utility.yul\":4745:4772   */\n              swap1\n              pop\n                /* \"#utility.yul\":4818:4827   */\n              dup2\n                /* \"#utility.yul\":4812:4816   */\n              dup2\n                /* \"#utility.yul\":4808:4828   */\n              sub\n                /* \"#utility.yul\":4804:4805   */\n              0x00\n                /* \"#utility.yul\":4793:4802   */\n              dup4\n                /* \"#utility.yul\":4789:4806   */\n              add\n                /* \"#utility.yul\":4782:4829   */\n              mstore\n                /* \"#utility.yul\":4846:4924   */\n              tag_202\n                /* \"#utility.yul\":4919:4923   */\n              dup2\n                /* \"#utility.yul\":4910:4916   */\n              dup9\n                /* \"#utility.yul\":4846:4924   */\n              tag_132\n              jump\t// in\n            tag_202:\n                /* \"#utility.yul\":4838:4924   */\n              swap1\n              pop\n                /* \"#utility.yul\":4934:5006   */\n              tag_203\n                /* \"#utility.yul\":5002:5004   */\n              0x20\n                /* \"#utility.yul\":4991:5000   */\n              dup4\n                /* \"#utility.yul\":4987:5005   */\n              add\n                /* \"#utility.yul\":4978:4984   */\n              dup8\n                /* \"#utility.yul\":4934:5006   */\n              tag_126\n              jump\t// in\n            tag_203:\n                /* \"#utility.yul\":5016:5088   */\n              tag_204\n                /* \"#utility.yul\":5084:5086   */\n              0x40\n                /* \"#utility.yul\":5073:5082   */\n              dup4\n                /* \"#utility.yul\":5069:5087   */\n              add\n                /* \"#utility.yul\":5060:5066   */\n              dup7\n                /* \"#utility.yul\":5016:5088   */\n              tag_127\n              jump\t// in\n            tag_204:\n                /* \"#utility.yul\":5098:5164   */\n              tag_205\n                /* \"#utility.yul\":5160:5162   */\n              0x60\n                /* \"#utility.yul\":5149:5158   */\n              dup4\n                /* \"#utility.yul\":5145:5163   */\n              add\n                /* \"#utility.yul\":5136:5142   */\n              dup6\n                /* \"#utility.yul\":5098:5164   */\n              tag_125\n              jump\t// in\n            tag_205:\n                /* \"#utility.yul\":5174:5247   */\n              tag_206\n                /* \"#utility.yul\":5242:5245   */\n              0x80\n                /* \"#utility.yul\":5231:5240   */\n              dup4\n                /* \"#utility.yul\":5227:5246   */\n              add\n                /* \"#utility.yul\":5218:5224   */\n              dup5\n                /* \"#utility.yul\":5174:5247   */\n              tag_126\n              jump\t// in\n            tag_206:\n                /* \"#utility.yul\":4511:5254   */\n              swap7\n              swap6\n              pop\n              pop\n              pop\n              pop\n              pop\n              pop\n              jump\t// out\n                /* \"#utility.yul\":5260:5377   */\n            tag_133:\n                /* \"#utility.yul\":5369:5370   */\n              0x00\n                /* \"#utility.yul\":5366:5367   */\n              dup1\n                /* \"#utility.yul\":5359:5371   */\n              revert\n                /* \"#utility.yul\":5383:5500   */\n            tag_134:\n                /* \"#utility.yul\":5492:5493   */\n              0x00\n                /* \"#utility.yul\":5489:5490   */\n              dup1\n                /* \"#utility.yul\":5482:5494   */\n              revert\n                /* \"#utility.yul\":5506:5686   */\n            tag_135:\n                /* \"#utility.yul\":5554:5631   */\n              0x4e487b7100000000000000000000000000000000000000000000000000000000\n                /* \"#utility.yul\":5551:5552   */\n              0x00\n                /* \"#utility.yul\":5544:5632   */\n              mstore\n                /* \"#utility.yul\":5651:5655   */\n              0x41\n                /* \"#utility.yul\":5648:5649   */\n              0x04\n                /* \"#utility.yul\":5641:5656   */\n              mstore\n                /* \"#utility.yul\":5675:5679   */\n              0x24\n                /* \"#utility.yul\":5672:5673   */\n              0x00\n                /* \"#utility.yul\":5665:5680   */\n              revert\n                /* \"#utility.yul\":5692:5973   */\n            tag_136:\n                /* \"#utility.yul\":5775:5802   */\n              tag_211\n                /* \"#utility.yul\":5797:5801   */\n              dup3\n                /* \"#utility.yul\":5775:5802   */\n              tag_131\n              jump\t// in\n            tag_211:\n                /* \"#utility.yul\":5767:5773   */\n              dup2\n                /* \"#utility.yul\":5763:5803   */\n              add\n                /* \"#utility.yul\":5905:5911   */\n              dup2\n                /* \"#utility.yul\":5893:5903   */\n              dup2\n                /* \"#utility.yul\":5890:5912   */\n              lt\n                /* \"#utility.yul\":5869:5887   */\n              0xffffffffffffffff\n                /* \"#utility.yul\":5857:5867   */\n              dup3\n                /* \"#utility.yul\":5854:5888   */\n              gt\n                /* \"#utility.yul\":5851:5913   */\n              or\n                /* \"#utility.yul\":5848:5936   */\n              iszero\n              tag_212\n              jumpi\n                /* \"#utility.yul\":5916:5934   */\n              tag_213\n              tag_135\n              jump\t// in\n            tag_213:\n                /* \"#utility.yul\":5848:5936   */\n            tag_212:\n                /* \"#utility.yul\":5956:5966   */\n              dup1\n                /* \"#utility.yul\":5952:5954   */\n              0x40\n                /* \"#utility.yul\":5945:5967   */\n              mstore\n                /* \"#utility.yul\":5735:5973   */\n              pop\n                /* \"#utility.yul\":5692:5973   */\n              pop\n              pop\n              jump\t// out\n                /* \"#utility.yul\":5979:6108   */\n            tag_137:\n                /* \"#utility.yul\":6013:6019   */\n              0x00\n                /* \"#utility.yul\":6040:6060   */\n              tag_215\n              tag_114\n              jump\t// in\n            tag_215:\n                /* \"#utility.yul\":6030:6060   */\n              swap1\n              pop\n                /* \"#utility.yul\":6069:6102   */\n              tag_216\n                /* \"#utility.yul\":6097:6101   */\n              dup3\n                /* \"#utility.yul\":6089:6095   */\n              dup3\n                /* \"#utility.yul\":6069:6102   */\n              tag_136\n              jump\t// in\n            tag_216:\n                /* \"#utility.yul\":5979:6108   */\n              swap2\n              swap1\n              pop\n              jump\t// out\n                /* \"#utility.yul\":6114:6422   */\n            tag_138:\n                /* \"#utility.yul\":6176:6180   */\n              0x00\n                /* \"#utility.yul\":6266:6284   */\n              0xffffffffffffffff\n                /* \"#utility.yul\":6258:6264   */\n              dup3\n                /* \"#utility.yul\":6255:6285   */\n              gt\n                /* \"#utility.yul\":6252:6308   */\n              iszero\n              tag_218\n              jumpi\n                /* \"#utility.yul\":6288:6306   */\n              tag_219\n              tag_135\n              jump\t// in\n            tag_219:\n                /* \"#utility.yul\":6252:6308   */\n            tag_218:\n                /* \"#utility.yul\":6326:6355   */\n              tag_220\n                /* \"#utility.yul\":6348:6354   */\n              dup3\n                /* \"#utility.yul\":6326:6355   */\n              tag_131\n              jump\t// in\n            tag_220:\n                /* \"#utility.yul\":6318:6355   */\n              swap1\n              pop\n                /* \"#utility.yul\":6410:6414   */\n              0x20\n                /* \"#utility.yul\":6404:6408   */\n              dup2\n                /* \"#utility.yul\":6400:6415   */\n              add\n                /* \"#utility.yul\":6392:6415   */\n              swap1\n              pop\n                /* \"#utility.yul\":6114:6422   */\n              swap2\n              swap1\n              pop\n              jump\t// out\n                /* \"#utility.yul\":6428:6582   */\n            tag_139:\n                /* \"#utility.yul\":6512:6518   */\n              dup3\n                /* \"#utility.yul\":6507:6510   */\n              dup2\n                /* \"#utility.yul\":6502:6505   */\n              dup4\n                /* \"#utility.yul\":6489:6519   */\n              calldatacopy\n                /* \"#utility.yul\":6574:6575   */\n              0x00\n                /* \"#utility.yul\":6565:6571   */\n              dup4\n                /* \"#utility.yul\":6560:6563   */\n              dup4\n                /* \"#utility.yul\":6556:6572   */\n              add\n                /* \"#utility.yul\":6549:6576   */\n              mstore\n                /* \"#utility.yul\":6428:6582   */\n              pop\n              pop\n              pop\n              jump\t// out\n                /* \"#utility.yul\":6588:7000   */\n            tag_140:\n                /* \"#utility.yul\":6666:6671   */\n              0x00\n                /* \"#utility.yul\":6691:6757   */\n              tag_223\n                /* \"#utility.yul\":6707:6756   */\n              tag_224\n                /* \"#utility.yul\":6749:6755   */\n              dup5\n                /* \"#utility.yul\":6707:6756   */\n              tag_138\n              jump\t// in\n            tag_224:\n                /* \"#utility.yul\":6691:6757   */\n              tag_137\n              jump\t// in\n            tag_223:\n                /* \"#utility.yul\":6682:6757   */\n              swap1\n              pop\n                /* \"#utility.yul\":6780:6786   */\n              dup3\n                /* \"#utility.yul\":6773:6778   */\n              dup2\n                /* \"#utility.yul\":6766:6787   */\n              mstore\n                /* \"#utility.yul\":6818:6822   */\n              0x20\n                /* \"#utility.yul\":6811:6816   */\n              dup2\n                /* \"#utility.yul\":6807:6823   */\n              add\n                /* \"#utility.yul\":6856:6859   */\n              dup5\n                /* \"#utility.yul\":6847:6853   */\n              dup5\n                /* \"#utility.yul\":6842:6845   */\n              dup5\n                /* \"#utility.yul\":6838:6854   */\n              add\n                /* \"#utility.yul\":6835:6860   */\n              gt\n                /* \"#utility.yul\":6832:6944   */\n              iszero\n              tag_225\n              jumpi\n                /* \"#utility.yul\":6863:6942   */\n              tag_226\n              tag_134\n              jump\t// in\n            tag_226:\n                /* \"#utility.yul\":6832:6944   */\n            tag_225:\n                /* \"#utility.yul\":6953:6994   */\n              tag_227\n                /* \"#utility.yul\":6987:6993   */\n              dup5\n                /* \"#utility.yul\":6982:6985   */\n              dup3\n                /* \"#utility.yul\":6977:6980   */\n              dup6\n                /* \"#utility.yul\":6953:6994   */\n              tag_139\n              jump\t// in\n            tag_227:\n                /* \"#utility.yul\":6672:7000   */\n              pop\n                /* \"#utility.yul\":6588:7000   */\n              swap4\n              swap3\n              pop\n              pop\n              pop\n              jump\t// out\n                /* \"#utility.yul\":7020:7360   */\n            tag_141:\n                /* \"#utility.yul\":7076:7081   */\n              0x00\n                /* \"#utility.yul\":7125:7128   */\n              dup3\n                /* \"#utility.yul\":7118:7122   */\n              0x1f\n                /* \"#utility.yul\":7110:7116   */\n              dup4\n                /* \"#utility.yul\":7106:7123   */\n              add\n                /* \"#utility.yul\":7102:7129   */\n              slt\n                /* \"#utility.yul\":7092:7214   */\n              tag_229\n              jumpi\n                /* \"#utility.yul\":7133:7212   */\n              tag_230\n              tag_133\n              jump\t// in\n            tag_230:\n                /* \"#utility.yul\":7092:7214   */\n            tag_229:\n                /* \"#utility.yul\":7250:7256   */\n              dup2\n                /* \"#utility.yul\":7237:7257   */\n              calldataload\n                /* \"#utility.yul\":7275:7354   */\n              tag_231\n                /* \"#utility.yul\":7350:7353   */\n              dup5\n                /* \"#utility.yul\":7342:7348   */\n              dup3\n                /* \"#utility.yul\":7335:7339   */\n              0x20\n                /* \"#utility.yul\":7327:7333   */\n              dup7\n                /* \"#utility.yul\":7323:7340   */\n              add\n                /* \"#utility.yul\":7275:7354   */\n              tag_140\n              jump\t// in\n            tag_231:\n                /* \"#utility.yul\":7266:7354   */\n              swap2\n              pop\n                /* \"#utility.yul\":7082:7360   */\n              pop\n                /* \"#utility.yul\":7020:7360   */\n              swap3\n              swap2\n              pop\n              pop\n              jump\t// out\n                /* \"#utility.yul\":7366:8165   */\n            tag_45:\n                /* \"#utility.yul\":7453:7459   */\n              0x00\n                /* \"#utility.yul\":7461:7467   */\n              dup1\n                /* \"#utility.yul\":7469:7475   */\n              0x00\n                /* \"#utility.yul\":7518:7520   */\n              0x60\n                /* \"#utility.yul\":7506:7515   */\n              dup5\n                /* \"#utility.yul\":7497:7504   */\n              dup7\n                /* \"#utility.yul\":7493:7516   */\n              sub\n                /* \"#utility.yul\":7489:7521   */\n              slt\n                /* \"#utility.yul\":7486:7605   */\n              iszero\n              tag_233\n              jumpi\n                /* \"#utility.yul\":7524:7603   */\n              tag_234\n              tag_115\n              jump\t// in\n            tag_234:\n                /* \"#utility.yul\":7486:7605   */\n            tag_233:\n                /* \"#utility.yul\":7672:7673   */\n              0x00\n                /* \"#utility.yul\":7661:7670   */\n              dup5\n                /* \"#utility.yul\":7657:7674   */\n              add\n                /* \"#utility.yul\":7644:7675   */\n              calldataload\n                /* \"#utility.yul\":7702:7720   */\n              0xffffffffffffffff\n                /* \"#utility.yul\":7694:7700   */\n              dup2\n                /* \"#utility.yul\":7691:7721   */\n              gt\n                /* \"#utility.yul\":7688:7805   */\n              iszero\n              tag_235\n              jumpi\n                /* \"#utility.yul\":7724:7803   */\n              tag_236\n              tag_116\n              jump\t// in\n            tag_236:\n                /* \"#utility.yul\":7688:7805   */\n            tag_235:\n                /* \"#utility.yul\":7829:7892   */\n              tag_237\n                /* \"#utility.yul\":7884:7891   */\n              dup7\n                /* \"#utility.yul\":7875:7881   */\n              dup3\n                /* \"#utility.yul\":7864:7873   */\n              dup8\n                /* \"#utility.yul\":7860:7882   */\n              add\n                /* \"#utility.yul\":7829:7892   */\n              tag_141\n              jump\t// in\n            tag_237:\n                /* \"#utility.yul\":7819:7892   */\n              swap4\n              pop\n                /* \"#utility.yul\":7615:7902   */\n              pop\n                /* \"#utility.yul\":7941:7943   */\n              0x20\n                /* \"#utility.yul\":7967:8020   */\n              tag_238\n                /* \"#utility.yul\":8012:8019   */\n              dup7\n                /* \"#utility.yul\":8003:8009   */\n              dup3\n                /* \"#utility.yul\":7992:8001   */\n              dup8\n                /* \"#utility.yul\":7988:8010   */\n              add\n                /* \"#utility.yul\":7967:8020   */\n              tag_119\n              jump\t// in\n            tag_238:\n                /* \"#utility.yul\":7957:8020   */\n              swap3\n              pop\n                /* \"#utility.yul\":7912:8030   */\n              pop\n                /* \"#utility.yul\":8069:8071   */\n              0x40\n                /* \"#utility.yul\":8095:8148   */\n              tag_239\n                /* \"#utility.yul\":8140:8147   */\n              dup7\n                /* \"#utility.yul\":8131:8137   */\n              dup3\n                /* \"#utility.yul\":8120:8129   */\n              dup8\n                /* \"#utility.yul\":8116:8138   */\n              add\n                /* \"#utility.yul\":8095:8148   */\n              tag_123\n              jump\t// in\n            tag_239:\n                /* \"#utility.yul\":8085:8148   */\n              swap2\n              pop\n                /* \"#utility.yul\":8040:8158   */\n              pop\n                /* \"#utility.yul\":7366:8165   */\n              swap3\n              pop\n              swap3\n              pop\n              swap3\n              jump\t// out\n                /* \"#utility.yul\":8171:8393   */\n            tag_51:\n                /* \"#utility.yul\":8264:8268   */\n              0x00\n                /* \"#utility.yul\":8302:8304   */\n              0x20\n                /* \"#utility.yul\":8291:8300   */\n              dup3\n                /* \"#utility.yul\":8287:8305   */\n              add\n                /* \"#utility.yul\":8279:8305   */\n              swap1\n              pop\n                /* \"#utility.yul\":8315:8386   */\n              tag_241\n                /* \"#utility.yul\":8383:8384   */\n              0x00\n                /* \"#utility.yul\":8372:8381   */\n              dup4\n                /* \"#utility.yul\":8368:8385   */\n              add\n                /* \"#utility.yul\":8359:8365   */\n              dup5\n                /* \"#utility.yul\":8315:8386   */\n              tag_126\n              jump\t// in\n            tag_241:\n                /* \"#utility.yul\":8171:8393   */\n              swap3\n              swap2\n              pop\n              pop\n              jump\t// out\n                /* \"#utility.yul\":8399:8579   */\n            tag_142:\n                /* \"#utility.yul\":8447:8524   */\n              0x4e487b7100000000000000000000000000000000000000000000000000000000\n                /* \"#utility.yul\":8444:8445   */\n              0x00\n                /* \"#utility.yul\":8437:8525   */\n              mstore\n                /* \"#utility.yul\":8544:8548   */\n              0x12\n                /* \"#utility.yul\":8541:8542   */\n              0x04\n                /* \"#utility.yul\":8534:8549   */\n              mstore\n                /* \"#utility.yul\":8568:8572   */\n              0x24\n                /* \"#utility.yul\":8565:8566   */\n              0x00\n                /* \"#utility.yul\":8558:8573   */\n              revert\n                /* \"#utility.yul\":8585:8765   */\n            tag_143:\n                /* \"#utility.yul\":8633:8710   */\n              0x4e487b7100000000000000000000000000000000000000000000000000000000\n                /* \"#utility.yul\":8630:8631   */\n              0x00\n                /* \"#utility.yul\":8623:8711   */\n              mstore\n                /* \"#utility.yul\":8730:8734   */\n              0x11\n                /* \"#utility.yul\":8727:8728   */\n              0x04\n                /* \"#utility.yul\":8720:8735   */\n              mstore\n                /* \"#utility.yul\":8754:8758   */\n              0x24\n                /* \"#utility.yul\":8751:8752   */\n              0x00\n                /* \"#utility.yul\":8744:8759   */\n              revert\n                /* \"#utility.yul\":8771:8956   */\n            tag_75:\n                /* \"#utility.yul\":8811:8812   */\n              0x00\n                /* \"#utility.yul\":8828:8848   */\n              tag_245\n                /* \"#utility.yul\":8846:8847   */\n              dup3\n                /* \"#utility.yul\":8828:8848   */\n              tag_117\n              jump\t// in\n            tag_245:\n                /* \"#utility.yul\":8823:8848   */\n              swap2\n              pop\n                /* \"#utility.yul\":8862:8882   */\n              tag_246\n                /* \"#utility.yul\":8880:8881   */\n              dup4\n                /* \"#utility.yul\":8862:8882   */\n              tag_117\n              jump\t// in\n            tag_246:\n                /* \"#utility.yul\":8857:8882   */\n              swap3\n              pop\n                /* \"#utility.yul\":8901:8902   */\n              dup3\n                /* \"#utility.yul\":8891:8926   */\n              tag_247\n              jumpi\n                /* \"#utility.yul\":8906:8924   */\n              tag_248\n              tag_142\n              jump\t// in\n            tag_248:\n                /* \"#utility.yul\":8891:8926   */\n            tag_247:\n                /* \"#utility.yul\":8948:8949   */\n              dup3\n                /* \"#utility.yul\":8945:8946   */\n              dup3\n                /* \"#utility.yul\":8941:8950   */\n              div\n                /* \"#utility.yul\":8936:8950   */\n              swap1\n              pop\n                /* \"#utility.yul\":8771:8956   */\n              swap3\n              swap2\n              pop\n              pop\n              jump\t// out\n                /* \"#utility.yul\":8962:9142   */\n            tag_144:\n                /* \"#utility.yul\":9010:9087   */\n              0x4e487b7100000000000000000000000000000000000000000000000000000000\n                /* \"#utility.yul\":9007:9008   */\n              0x00\n                /* \"#utility.yul\":9000:9088   */\n              mstore\n                /* \"#utility.yul\":9107:9111   */\n              0x22\n                /* \"#utility.yul\":9104:9105   */\n              0x04\n                /* \"#utility.yul\":9097:9112   */\n              mstore\n                /* \"#utility.yul\":9131:9135   */\n              0x24\n                /* \"#utility.yul\":9128:9129   */\n              0x00\n                /* \"#utility.yul\":9121:9136   */\n              revert\n                /* \"#utility.yul\":9148:9468   */\n            tag_83:\n                /* \"#utility.yul\":9192:9198   */\n              0x00\n                /* \"#utility.yul\":9229:9230   */\n              0x02\n                /* \"#utility.yul\":9223:9227   */\n              dup3\n                /* \"#utility.yul\":9219:9231   */\n              div\n                /* \"#utility.yul\":9209:9231   */\n              swap1\n              pop\n                /* \"#utility.yul\":9276:9277   */\n              0x01\n                /* \"#utility.yul\":9270:9274   */\n              dup3\n                /* \"#utility.yul\":9266:9278   */\n              and\n                /* \"#utility.yul\":9297:9315   */\n              dup1\n                /* \"#utility.yul\":9287:9368   */\n              tag_251\n              jumpi\n                /* \"#utility.yul\":9353:9357   */\n              0x7f\n                /* \"#utility.yul\":9345:9351   */\n              dup3\n                /* \"#utility.yul\":9341:9358   */\n              and\n                /* \"#utility.yul\":9331:9358   */\n              swap2\n              pop\n                /* \"#utility.yul\":9287:9368   */\n            tag_251:\n                /* \"#utility.yul\":9415:9417   */\n              0x20\n                /* \"#utility.yul\":9407:9413   */\n              dup3\n                /* \"#utility.yul\":9404:9418   */\n              lt\n                /* \"#utility.yul\":9384:9402   */\n              dup2\n                /* \"#utility.yul\":9381:9419   */\n              eq\n                /* \"#utility.yul\":9378:9462   */\n              iszero\n              tag_252\n              jumpi\n                /* \"#utility.yul\":9434:9452   */\n              tag_253\n              tag_144\n              jump\t// in\n            tag_253:\n                /* \"#utility.yul\":9378:9462   */\n            tag_252:\n                /* \"#utility.yul\":9199:9468   */\n              pop\n                /* \"#utility.yul\":9148:9468   */\n              swap2\n              swap1\n              pop\n              jump\t// out\n                /* \"#utility.yul\":9474:9707   */\n            tag_92:\n                /* \"#utility.yul\":9513:9516   */\n              0x00\n                /* \"#utility.yul\":9536:9560   */\n              tag_255\n                /* \"#utility.yul\":9554:9559   */\n              dup3\n                /* \"#utility.yul\":9536:9560   */\n              tag_117\n              jump\t// in\n            tag_255:\n                /* \"#utility.yul\":9527:9560   */\n              swap2\n              pop\n                /* \"#utility.yul\":9582:9648   */\n              0xffffffffffffffffffffffffffffffffffffffffffffffffffffffffffffffff\n                /* \"#utility.yul\":9575:9580   */\n              dup3\n                /* \"#utility.yul\":9572:9649   */\n              eq\n                /* \"#utility.yul\":9569:9672   */\n              iszero\n              tag_256\n              jumpi\n                /* \"#utility.yul\":9652:9670   */\n              tag_257\n              tag_143\n              jump\t// in\n            tag_257:\n                /* \"#utility.yul\":9569:9672   */\n            tag_256:\n                /* \"#utility.yul\":9699:9700   */\n              0x01\n                /* \"#utility.yul\":9692:9697   */\n              dup3\n                /* \"#utility.yul\":9688:9701   */\n              add\n                /* \"#utility.yul\":9681:9701   */\n              swap1\n              pop\n                /* \"#utility.yul\":9474:9707   */\n              swap2\n              swap1\n              pop\n              jump\t// out\n\n            auxdata: 0xa26469706673582212201280c170aa47ed06c9ea303b0da741a7e636adc5a51bf8e39711805ba362af5964736f6c634300080b0033\n        }\n    }\n\n    auxdata: 0xa2646970667358221220afcfc0b3c870df84ffb656b4f465ca975dc0ebbdaa29f6bd3fa1b307765ba0f264736f6c634300080b0033\n}\n","bytecode":{"linkReferences":{},"object":"608060405234801561001057600080fd5b50611501806100206000396000f3fe608060405234801561001057600080fd5b50600436106100415760003560e01c80639ad1ee1014610046578063a3303a7514610076578063aa9a068f14610092575b600080fd5b610060600480360381019061005b9190610266565b6100b0565b60405161006d91906102d4565b60405180910390f35b610090600480360381019061008b9190610266565b6100ef565b005b61009a610190565b6040516100a791906103ad565b60405180910390f35b600081815481106100c057600080fd5b906000526020600020016000915054906101000a900473ffffffffffffffffffffffffffffffffffffffff1681565b600081336040516100ff9061021e565b61010a9291906103de565b604051809103906000f080158015610126573d6000803e3d6000fd5b5090506000819080600181540180825580915050600190039060005260206000200160009091909190916101000a81548173ffffffffffffffffffffffffffffffffffffffff021916908373ffffffffffffffffffffffffffffffffffffffff1602179055505050565b6060600080548060200260200160405190810160405280929190818152602001828054801561021457602002820191906000526020600020905b8160009054906101000a900473ffffffffffffffffffffffffffffffffffffffff1673ffffffffffffffffffffffffffffffffffffffff16815260200190600101908083116101ca575b5050505050905090565b6110c48061040883390190565b600080fd5b6000819050919050565b61024381610230565b811461024e57600080fd5b50565b6000813590506102608161023a565b92915050565b60006020828403121561027c5761027b61022b565b5b600061028a84828501610251565b91505092915050565b600073ffffffffffffffffffffffffffffffffffffffff82169050919050565b60006102be82610293565b9050919050565b6102ce816102b3565b82525050565b60006020820190506102e960008301846102c5565b92915050565b600081519050919050565b600082825260208201905092915050565b6000819050602082019050919050565b610324816102b3565b82525050565b6000610336838361031b565b60208301905092915050565b6000602082019050919050565b600061035a826102ef565b61036481856102fa565b935061036f8361030b565b8060005b838110156103a0578151610387888261032a565b975061039283610342565b925050600181019050610373565b5085935050505092915050565b600060208201905081810360008301526103c7818461034f565b905092915050565b6103d881610230565b82525050565b60006040820190506103f360008301856103cf565b61040060208301846102c5565b939250505056fe60806040523480156200001157600080fd5b50604051620010c4380380620010c483398181016040528101906200003791906200012c565b80600160006101000a81548173ffffffffffffffffffffffffffffffffffffffff021916908373ffffffffffffffffffffffffffffffffffffffff16021790555081600281905550505062000173565b600080fd5b6000819050919050565b620000a1816200008c565b8114620000ad57600080fd5b50565b600081519050620000c18162000096565b92915050565b600073ffffffffffffffffffffffffffffffffffffffff82169050919050565b6000620000f482620000c7565b9050919050565b6200010681620000e7565b81146200011257600080fd5b50565b6000815190506200012681620000fb565b92915050565b6000806040838503121562000146576200014562000087565b5b60006200015685828601620000b0565b9250506020620001698582860162000115565b9150509250929050565b610f4180620001836000396000f3fe6080604052600436106100a75760003560e01c80638b7afe2e116100645780638b7afe2e146101c9578063aaffadf3146101f4578063c1f11b4c1461021f578063c3cf27921461024a578063d7bb99ba14610275578063d7d1bbdb1461027f576100a7565b806303441006146100ac5780630a144391146100c85780634051ddac14610105578063481c6a751461013457806381d12c581461015f5780638a9cfd55146101a0575b600080fd5b6100c660048036038101906100c191906109a6565b6102a8565b005b3480156100d457600080fd5b506100ef60048036038101906100ea9190610a31565b610427565b6040516100fc9190610a79565b60405180910390f35b34801561011157600080fd5b5061011a610447565b60405161012b959493929190610ab2565b60405180910390f35b34801561014057600080fd5b50610149610499565b6040516101569190610b05565b60405180910390f35b34801561016b57600080fd5b50610186600480360381019061018191906109a6565b6104bf565b604051610197959493929190610bb9565b60405180910390f35b3480156101ac57600080fd5b506101c760048036038101906101c29190610d48565b6105aa565b005b3480156101d557600080fd5b506101de6106c2565b6040516101eb9190610db7565b60405180910390f35b34801561020057600080fd5b506102096106ca565b6040516102169190610db7565b60405180910390f35b34801561022b57600080fd5b506102346106d0565b6040516102419190610db7565b60405180910390f35b34801561025657600080fd5b5061025f6106da565b60405161026c9190610db7565b60405180910390f35b61027d6106e0565b005b34801561028b57600080fd5b506102a660048036038101906102a191906109a6565b610760565b005b600160009054906101000a900473ffffffffffffffffffffffffffffffffffffffff1673ffffffffffffffffffffffffffffffffffffffff163373ffffffffffffffffffffffffffffffffffffffff161461030257600080fd5b60008082815260200190815260200160002060020160149054906101000a900460ff161561032f57600080fd5b600060026004546103409190610e30565b90508060008084815260200190815260200160002060030154101561036457600080fd5b60008083815260200190815260200160002060020160009054906101000a900473ffffffffffffffffffffffffffffffffffffffff1673ffffffffffffffffffffffffffffffffffffffff166108fc600080858152602001908152602001600020600101549081150290604051600060405180830381858888f193505050501580156103f4573d6000803e3d6000fd5b50600160008084815260200190815260200160002060020160146101000a81548160ff0219169083151502179055505050565b60036020528060005260406000206000915054906101000a900460ff1681565b600080600080600060025461045a6106c2565b6104626106d0565b600454600160009054906101000a900473ffffffffffffffffffffffffffffffffffffffff16945094509450945094509091929394565b600160009054906101000a900473ffffffffffffffffffffffffffffffffffffffff1681565b60006020528060005260406000206000915090508060000180546104e290610e90565b80601f016020809104026020016040519081016040528092919081815260200182805461050e90610e90565b801561055b5780601f106105305761010080835404028352916020019161055b565b820191906000526020600020905b81548152906001019060200180831161053e57829003601f168201915b5050505050908060010154908060020160009054906101000a900473ffffffffffffffffffffffffffffffffffffffff16908060020160149054906101000a900460ff16908060030154905085565b600160009054906101000a900473ffffffffffffffffffffffffffffffffffffffff1673ffffffffffffffffffffffffffffffffffffffff163373ffffffffffffffffffffffffffffffffffffffff161461060457600080fd5b60008060006005600081548092919061061c90610ec2565b9190505581526020019081526020016000209050838160000190805190602001906106489291906108b9565b50828160010181905550818160020160006101000a81548173ffffffffffffffffffffffffffffffffffffffff021916908373ffffffffffffffffffffffffffffffffffffffff16021790555060008160020160146101000a81548160ff0219169083151502179055506000816003018190555050505050565b600047905090565b60025481565b6000600554905090565b60045481565b60025434116106ee57600080fd5b6001600360003373ffffffffffffffffffffffffffffffffffffffff1673ffffffffffffffffffffffffffffffffffffffff16815260200190815260200160002060006101000a81548160ff0219169083151502179055506004600081548092919061075990610ec2565b9190505550565b600360003373ffffffffffffffffffffffffffffffffffffffff1673ffffffffffffffffffffffffffffffffffffffff16815260200190815260200160002060009054906101000a900460ff166107b657600080fd5b60008082815260200190815260200160002060040160003373ffffffffffffffffffffffffffffffffffffffff1673ffffffffffffffffffffffffffffffffffffffff16815260200190815260200160002060009054906101000a900460ff161561082057600080fd5b600160008083815260200190815260200160002060040160003373ffffffffffffffffffffffffffffffffffffffff1673ffffffffffffffffffffffffffffffffffffffff16815260200190815260200160002060006101000a81548160ff02191690831515021790555060008082815260200190815260200160002060030160008154809291906108b190610ec2565b919050555050565b8280546108c590610e90565b90600052602060002090601f0160209004810192826108e7576000855561092e565b82601f1061090057805160ff191683800117855561092e565b8280016001018555821561092e579182015b8281111561092d578251825591602001919060010190610912565b5b50905061093b919061093f565b5090565b5b80821115610958576000816000905550600101610940565b5090565b6000604051905090565b600080fd5b600080fd5b6000819050919050565b61098381610970565b811461098e57600080fd5b50565b6000813590506109a08161097a565b92915050565b6000602082840312156109bc576109bb610966565b5b60006109ca84828501610991565b91505092915050565b600073ffffffffffffffffffffffffffffffffffffffff82169050919050565b60006109fe826109d3565b9050919050565b610a0e816109f3565b8114610a1957600080fd5b50565b600081359050610a2b81610a05565b92915050565b600060208284031215610a4757610a46610966565b5b6000610a5584828501610a1c565b91505092915050565b60008115159050919050565b610a7381610a5e565b82525050565b6000602082019050610a8e6000830184610a6a565b92915050565b610a9d81610970565b82525050565b610aac816109f3565b82525050565b600060a082019050610ac76000830188610a94565b610ad46020830187610a94565b610ae16040830186610a94565b610aee6060830185610a94565b610afb6080830184610aa3565b9695505050505050565b6000602082019050610b1a6000830184610aa3565b92915050565b600081519050919050565b600082825260208201905092915050565b60005b83811015610b5a578082015181840152602081019050610b3f565b83811115610b69576000848401525b50505050565b6000601f19601f8301169050919050565b6000610b8b82610b20565b610b958185610b2b565b9350610ba5818560208601610b3c565b610bae81610b6f565b840191505092915050565b600060a0820190508181036000830152610bd38188610b80565b9050610be26020830187610a94565b610bef6040830186610aa3565b610bfc6060830185610a6a565b610c096080830184610a94565b9695505050505050565b600080fd5b600080fd5b7f4e487b7100000000000000000000000000000000000000000000000000000000600052604160045260246000fd5b610c5582610b6f565b810181811067ffffffffffffffff82111715610c7457610c73610c1d565b5b80604052505050565b6000610c8761095c565b9050610c938282610c4c565b919050565b600067ffffffffffffffff821115610cb357610cb2610c1d565b5b610cbc82610b6f565b9050602081019050919050565b82818337600083830152505050565b6000610ceb610ce684610c98565b610c7d565b905082815260208101848484011115610d0757610d06610c18565b5b610d12848285610cc9565b509392505050565b600082601f830112610d2f57610d2e610c13565b5b8135610d3f848260208601610cd8565b91505092915050565b600080600060608486031215610d6157610d60610966565b5b600084013567ffffffffffffffff811115610d7f57610d7e61096b565b5b610d8b86828701610d1a565b9350506020610d9c86828701610991565b9250506040610dad86828701610a1c565b9150509250925092565b6000602082019050610dcc6000830184610a94565b92915050565b7f4e487b7100000000000000000000000000000000000000000000000000000000600052601260045260246000fd5b7f4e487b7100000000000000000000000000000000000000000000000000000000600052601160045260246000fd5b6000610e3b82610970565b9150610e4683610970565b925082610e5657610e55610dd2565b5b828204905092915050565b7f4e487b7100000000000000000000000000000000000000000000000000000000600052602260045260246000fd5b60006002820490506001821680610ea857607f821691505b60208210811415610ebc57610ebb610e61565b5b50919050565b6000610ecd82610970565b91507fffffffffffffffffffffffffffffffffffffffffffffffffffffffffffffffff821415610f0057610eff610e01565b5b60018201905091905056fea26469706673582212201280c170aa47ed06c9ea303b0da741a7e636adc5a51bf8e39711805ba362af5964736f6c634300080b0033a2646970667358221220afcfc0b3c870df84ffb656b4f465ca975dc0ebbdaa29f6bd3fa1b307765ba0f264736f6c634300080b0033","opcodes":"PUSH1 0x80 PUSH1 0x40 MSTORE CALLVALUE DUP1 ISZERO PUSH2 0x10 JUMPI PUSH1 0x0 DUP1 REVERT JUMPDEST POP PUSH2 0x1501 DUP1 PUSH2 0x20 PUSH1 0x0 CODECOPY PUSH1 0x0 RETURN INVALID PUSH1 0x80 PUSH1 0x40 MSTORE CALLVALUE DUP1 ISZERO PUSH2 0x10 JUMPI PUSH1 0x0 DUP1 REVERT JUMPDEST POP PUSH1 0x4 CALLDATASIZE LT PUSH2 0x41 JUMPI PUSH1 0x0 CALLDATALOAD PUSH1 0xE0 SHR DUP1 PUSH4 0x9AD1EE10 EQ PUSH2 0x46 JUMPI DUP1 PUSH4 0xA3303A75 EQ PUSH2 0x76 JUMPI DUP1 PUSH4 0xAA9A068F EQ PUSH2 0x92 JUMPI JUMPDEST PUSH1 0x0 DUP1 REVERT JUMPDEST PUSH2 0x60 PUSH1 0x4 DUP1 CALLDATASIZE SUB DUP2 ADD SWAP1 PUSH2 0x5B SWAP2 SWAP1 PUSH2 0x266 JUMP JUMPDEST PUSH2 0xB0 JUMP JUMPDEST PUSH1 0x40 MLOAD PUSH2 0x6D SWAP2 SWAP1 PUSH2 0x2D4 JUMP JUMPDEST PUSH1 0x40 MLOAD DUP1 SWAP2 SUB SWAP1 RETURN JUMPDEST PUSH2 0x90 PUSH1 0x4 DUP1 CALLDATASIZE SUB DUP2 ADD SWAP1 PUSH2 0x8B SWAP2 SWAP1 PUSH2 0x266 JUMP JUMPDEST PUSH2 0xEF JUMP JUMPDEST STOP JUMPDEST PUSH2 0x9A PUSH2 0x190 JUMP JUMPDEST PUSH1 0x40 MLOAD PUSH2 0xA7 SWAP2 SWAP1 PUSH2 0x3AD JUMP JUMPDEST PUSH1 0x40 MLOAD DUP1 SWAP2 SUB SWAP1 RETURN JUMPDEST PUSH1 0x0 DUP2 DUP2 SLOAD DUP2 LT PUSH2 0xC0 JUMPI PUSH1 0x0 DUP1 REVERT JUMPDEST SWAP1 PUSH1 0x0 MSTORE PUSH1 0x20 PUSH1 0x0 KECCAK256 ADD PUSH1 0x0 SWAP2 POP SLOAD SWAP1 PUSH2 0x100 EXP SWAP1 DIV PUSH20 0xFFFFFFFFFFFFFFFFFFFFFFFFFFFFFFFFFFFFFFFF AND DUP2 JUMP JUMPDEST PUSH1 0x0 DUP2 CALLER PUSH1 0x40 MLOAD PUSH2 0xFF SWAP1 PUSH2 0x21E JUMP JUMPDEST PUSH2 0x10A SWAP3 SWAP2 SWAP1 PUSH2 0x3DE JUMP JUMPDEST PUSH1 0x40 MLOAD DUP1 SWAP2 SUB SWAP1 PUSH1 0x0 CREATE DUP1 ISZERO DUP1 ISZERO PUSH2 0x126 JUMPI RETURNDATASIZE PUSH1 0x0 DUP1 RETURNDATACOPY RETURNDATASIZE PUSH1 0x0 REVERT JUMPDEST POP SWAP1 POP PUSH1 0x0 DUP2 SWAP1 DUP1 PUSH1 0x1 DUP2 SLOAD ADD DUP1 DUP3 SSTORE DUP1 SWAP2 POP POP PUSH1 0x1 SWAP1 SUB SWAP1 PUSH1 0x0 MSTORE PUSH1 0x20 PUSH1 0x0 KECCAK256 ADD PUSH1 0x0 SWAP1 SWAP2 SWAP1 SWAP2 SWAP1 SWAP2 PUSH2 0x100 EXP DUP2 SLOAD DUP2 PUSH20 0xFFFFFFFFFFFFFFFFFFFFFFFFFFFFFFFFFFFFFFFF MUL NOT AND SWAP1 DUP4 PUSH20 0xFFFFFFFFFFFFFFFFFFFFFFFFFFFFFFFFFFFFFFFF AND MUL OR SWAP1 SSTORE POP POP POP JUMP JUMPDEST PUSH1 0x60 PUSH1 0x0 DUP1 SLOAD DUP1 PUSH1 0x20 MUL PUSH1 0x20 ADD PUSH1 0x40 MLOAD SWAP1 DUP2 ADD PUSH1 0x40 MSTORE DUP1 SWAP3 SWAP2 SWAP1 DUP2 DUP2 MSTORE PUSH1 0x20 ADD DUP3 DUP1 SLOAD DUP1 ISZERO PUSH2 0x214 JUMPI PUSH1 0x20 MUL DUP3 ADD SWAP2 SWAP1 PUSH1 0x0 MSTORE PUSH1 0x20 PUSH1 0x0 KECCAK256 SWAP1 JUMPDEST DUP2 PUSH1 0x0 SWAP1 SLOAD SWAP1 PUSH2 0x100 EXP SWAP1 DIV PUSH20 0xFFFFFFFFFFFFFFFFFFFFFFFFFFFFFFFFFFFFFFFF AND PUSH20 0xFFFFFFFFFFFFFFFFFFFFFFFFFFFFFFFFFFFFFFFF AND DUP2 MSTORE PUSH1 0x20 ADD SWAP1 PUSH1 0x1 ADD SWAP1 DUP1 DUP4 GT PUSH2 0x1CA JUMPI JUMPDEST POP POP POP POP POP SWAP1 POP SWAP1 JUMP JUMPDEST PUSH2 0x10C4 DUP1 PUSH2 0x408 DUP4 CODECOPY ADD SWAP1 JUMP JUMPDEST PUSH1 0x0 DUP1 REVERT JUMPDEST PUSH1 0x0 DUP2 SWAP1 POP SWAP2 SWAP1 POP JUMP JUMPDEST PUSH2 0x243 DUP2 PUSH2 0x230 JUMP JUMPDEST DUP2 EQ PUSH2 0x24E JUMPI PUSH1 0x0 DUP1 REVERT JUMPDEST POP JUMP JUMPDEST PUSH1 0x0 DUP2 CALLDATALOAD SWAP1 POP PUSH2 0x260 DUP2 PUSH2 0x23A JUMP JUMPDEST SWAP3 SWAP2 POP POP JUMP JUMPDEST PUSH1 0x0 PUSH1 0x20 DUP3 DUP5 SUB SLT ISZERO PUSH2 0x27C JUMPI PUSH2 0x27B PUSH2 0x22B JUMP JUMPDEST JUMPDEST PUSH1 0x0 PUSH2 0x28A DUP5 DUP3 DUP6 ADD PUSH2 0x251 JUMP JUMPDEST SWAP2 POP POP SWAP3 SWAP2 POP POP JUMP JUMPDEST PUSH1 0x0 PUSH20 0xFFFFFFFFFFFFFFFFFFFFFFFFFFFFFFFFFFFFFFFF DUP3 AND SWAP1 POP SWAP2 SWAP1 POP JUMP JUMPDEST PUSH1 0x0 PUSH2 0x2BE DUP3 PUSH2 0x293 JUMP JUMPDEST SWAP1 POP SWAP2 SWAP1 POP JUMP JUMPDEST PUSH2 0x2CE DUP2 PUSH2 0x2B3 JUMP JUMPDEST DUP3 MSTORE POP POP JUMP JUMPDEST PUSH1 0x0 PUSH1 0x20 DUP3 ADD SWAP1 POP PUSH2 0x2E9 PUSH1 0x0 DUP4 ADD DUP5 PUSH2 0x2C5 JUMP JUMPDEST SWAP3 SWAP2 POP POP JUMP JUMPDEST PUSH1 0x0 DUP2 MLOAD SWAP1 POP SWAP2 SWAP1 POP JUMP JUMPDEST PUSH1 0x0 DUP3 DUP3 MSTORE PUSH1 0x20 DUP3 ADD SWAP1 POP SWAP3 SWAP2 POP POP JUMP JUMPDEST PUSH1 0x0 DUP2 SWAP1 POP PUSH1 0x20 DUP3 ADD SWAP1 POP SWAP2 SWAP1 POP JUMP JUMPDEST PUSH2 0x324 DUP2 PUSH2 0x2B3 JUMP JUMPDEST DUP3 MSTORE POP POP JUMP JUMPDEST PUSH1 0x0 PUSH2 0x336 DUP4 DUP4 PUSH2 0x31B JUMP JUMPDEST PUSH1 0x20 DUP4 ADD SWAP1 POP SWAP3 SWAP2 POP POP JUMP JUMPDEST PUSH1 0x0 PUSH1 0x20 DUP3 ADD SWAP1 POP SWAP2 SWAP1 POP JUMP JUMPDEST PUSH1 0x0 PUSH2 0x35A DUP3 PUSH2 0x2EF JUMP JUMPDEST PUSH2 0x364 DUP2 DUP6 PUSH2 0x2FA JUMP JUMPDEST SWAP4 POP PUSH2 0x36F DUP4 PUSH2 0x30B JUMP JUMPDEST DUP1 PUSH1 0x0 JUMPDEST DUP4 DUP2 LT ISZERO PUSH2 0x3A0 JUMPI DUP2 MLOAD PUSH2 0x387 DUP9 DUP3 PUSH2 0x32A JUMP JUMPDEST SWAP8 POP PUSH2 0x392 DUP4 PUSH2 0x342 JUMP JUMPDEST SWAP3 POP POP PUSH1 0x1 DUP2 ADD SWAP1 POP PUSH2 0x373 JUMP JUMPDEST POP DUP6 SWAP4 POP POP POP POP SWAP3 SWAP2 POP POP JUMP JUMPDEST PUSH1 0x0 PUSH1 0x20 DUP3 ADD SWAP1 POP DUP2 DUP2 SUB PUSH1 0x0 DUP4 ADD MSTORE PUSH2 0x3C7 DUP2 DUP5 PUSH2 0x34F JUMP JUMPDEST SWAP1 POP SWAP3 SWAP2 POP POP JUMP JUMPDEST PUSH2 0x3D8 DUP2 PUSH2 0x230 JUMP JUMPDEST DUP3 MSTORE POP POP JUMP JUMPDEST PUSH1 0x0 PUSH1 0x40 DUP3 ADD SWAP1 POP PUSH2 0x3F3 PUSH1 0x0 DUP4 ADD DUP6 PUSH2 0x3CF JUMP JUMPDEST PUSH2 0x400 PUSH1 0x20 DUP4 ADD DUP5 PUSH2 0x2C5 JUMP JUMPDEST SWAP4 SWAP3 POP POP POP JUMP INVALID PUSH1 0x80 PUSH1 0x40 MSTORE CALLVALUE DUP1 ISZERO PUSH3 0x11 JUMPI PUSH1 0x0 DUP1 REVERT JUMPDEST POP PUSH1 0x40 MLOAD PUSH3 0x10C4 CODESIZE SUB DUP1 PUSH3 0x10C4 DUP4 CODECOPY DUP2 DUP2 ADD PUSH1 0x40 MSTORE DUP2 ADD SWAP1 PUSH3 0x37 SWAP2 SWAP1 PUSH3 0x12C JUMP JUMPDEST DUP1 PUSH1 0x1 PUSH1 0x0 PUSH2 0x100 EXP DUP2 SLOAD DUP2 PUSH20 0xFFFFFFFFFFFFFFFFFFFFFFFFFFFFFFFFFFFFFFFF MUL NOT AND SWAP1 DUP4 PUSH20 0xFFFFFFFFFFFFFFFFFFFFFFFFFFFFFFFFFFFFFFFF AND MUL OR SWAP1 SSTORE POP DUP2 PUSH1 0x2 DUP2 SWAP1 SSTORE POP POP POP PUSH3 0x173 JUMP JUMPDEST PUSH1 0x0 DUP1 REVERT JUMPDEST PUSH1 0x0 DUP2 SWAP1 POP SWAP2 SWAP1 POP JUMP JUMPDEST PUSH3 0xA1 DUP2 PUSH3 0x8C JUMP JUMPDEST DUP2 EQ PUSH3 0xAD JUMPI PUSH1 0x0 DUP1 REVERT JUMPDEST POP JUMP JUMPDEST PUSH1 0x0 DUP2 MLOAD SWAP1 POP PUSH3 0xC1 DUP2 PUSH3 0x96 JUMP JUMPDEST SWAP3 SWAP2 POP POP JUMP JUMPDEST PUSH1 0x0 PUSH20 0xFFFFFFFFFFFFFFFFFFFFFFFFFFFFFFFFFFFFFFFF DUP3 AND SWAP1 POP SWAP2 SWAP1 POP JUMP JUMPDEST PUSH1 0x0 PUSH3 0xF4 DUP3 PUSH3 0xC7 JUMP JUMPDEST SWAP1 POP SWAP2 SWAP1 POP JUMP JUMPDEST PUSH3 0x106 DUP2 PUSH3 0xE7 JUMP JUMPDEST DUP2 EQ PUSH3 0x112 JUMPI PUSH1 0x0 DUP1 REVERT JUMPDEST POP JUMP JUMPDEST PUSH1 0x0 DUP2 MLOAD SWAP1 POP PUSH3 0x126 DUP2 PUSH3 0xFB JUMP JUMPDEST SWAP3 SWAP2 POP POP JUMP JUMPDEST PUSH1 0x0 DUP1 PUSH1 0x40 DUP4 DUP6 SUB SLT ISZERO PUSH3 0x146 JUMPI PUSH3 0x145 PUSH3 0x87 JUMP JUMPDEST JUMPDEST PUSH1 0x0 PUSH3 0x156 DUP6 DUP3 DUP7 ADD PUSH3 0xB0 JUMP JUMPDEST SWAP3 POP POP PUSH1 0x20 PUSH3 0x169 DUP6 DUP3 DUP7 ADD PUSH3 0x115 JUMP JUMPDEST SWAP2 POP POP SWAP3 POP SWAP3 SWAP1 POP JUMP JUMPDEST PUSH2 0xF41 DUP1 PUSH3 0x183 PUSH1 0x0 CODECOPY PUSH1 0x0 RETURN INVALID PUSH1 0x80 PUSH1 0x40 MSTORE PUSH1 0x4 CALLDATASIZE LT PUSH2 0xA7 JUMPI PUSH1 0x0 CALLDATALOAD PUSH1 0xE0 SHR DUP1 PUSH4 0x8B7AFE2E GT PUSH2 0x64 JUMPI DUP1 PUSH4 0x8B7AFE2E EQ PUSH2 0x1C9 JUMPI DUP1 PUSH4 0xAAFFADF3 EQ PUSH2 0x1F4 JUMPI DUP1 PUSH4 0xC1F11B4C EQ PUSH2 0x21F JUMPI DUP1 PUSH4 0xC3CF2792 EQ PUSH2 0x24A JUMPI DUP1 PUSH4 0xD7BB99BA EQ PUSH2 0x275 JUMPI DUP1 PUSH4 0xD7D1BBDB EQ PUSH2 0x27F JUMPI PUSH2 0xA7 JUMP JUMPDEST DUP1 PUSH4 0x3441006 EQ PUSH2 0xAC JUMPI DUP1 PUSH4 0xA144391 EQ PUSH2 0xC8 JUMPI DUP1 PUSH4 0x4051DDAC EQ PUSH2 0x105 JUMPI DUP1 PUSH4 0x481C6A75 EQ PUSH2 0x134 JUMPI DUP1 PUSH4 0x81D12C58 EQ PUSH2 0x15F JUMPI DUP1 PUSH4 0x8A9CFD55 EQ PUSH2 0x1A0 JUMPI JUMPDEST PUSH1 0x0 DUP1 REVERT JUMPDEST PUSH2 0xC6 PUSH1 0x4 DUP1 CALLDATASIZE SUB DUP2 ADD SWAP1 PUSH2 0xC1 SWAP2 SWAP1 PUSH2 0x9A6 JUMP JUMPDEST PUSH2 0x2A8 JUMP JUMPDEST STOP JUMPDEST CALLVALUE DUP1 ISZERO PUSH2 0xD4 JUMPI PUSH1 0x0 DUP1 REVERT JUMPDEST POP PUSH2 0xEF PUSH1 0x4 DUP1 CALLDATASIZE SUB DUP2 ADD SWAP1 PUSH2 0xEA SWAP2 SWAP1 PUSH2 0xA31 JUMP JUMPDEST PUSH2 0x427 JUMP JUMPDEST PUSH1 0x40 MLOAD PUSH2 0xFC SWAP2 SWAP1 PUSH2 0xA79 JUMP JUMPDEST PUSH1 0x40 MLOAD DUP1 SWAP2 SUB SWAP1 RETURN JUMPDEST CALLVALUE DUP1 ISZERO PUSH2 0x111 JUMPI PUSH1 0x0 DUP1 REVERT JUMPDEST POP PUSH2 0x11A PUSH2 0x447 JUMP JUMPDEST PUSH1 0x40 MLOAD PUSH2 0x12B SWAP6 SWAP5 SWAP4 SWAP3 SWAP2 SWAP1 PUSH2 0xAB2 JUMP JUMPDEST PUSH1 0x40 MLOAD DUP1 SWAP2 SUB SWAP1 RETURN JUMPDEST CALLVALUE DUP1 ISZERO PUSH2 0x140 JUMPI PUSH1 0x0 DUP1 REVERT JUMPDEST POP PUSH2 0x149 PUSH2 0x499 JUMP JUMPDEST PUSH1 0x40 MLOAD PUSH2 0x156 SWAP2 SWAP1 PUSH2 0xB05 JUMP JUMPDEST PUSH1 0x40 MLOAD DUP1 SWAP2 SUB SWAP1 RETURN JUMPDEST CALLVALUE DUP1 ISZERO PUSH2 0x16B JUMPI PUSH1 0x0 DUP1 REVERT JUMPDEST POP PUSH2 0x186 PUSH1 0x4 DUP1 CALLDATASIZE SUB DUP2 ADD SWAP1 PUSH2 0x181 SWAP2 SWAP1 PUSH2 0x9A6 JUMP JUMPDEST PUSH2 0x4BF JUMP JUMPDEST PUSH1 0x40 MLOAD PUSH2 0x197 SWAP6 SWAP5 SWAP4 SWAP3 SWAP2 SWAP1 PUSH2 0xBB9 JUMP JUMPDEST PUSH1 0x40 MLOAD DUP1 SWAP2 SUB SWAP1 RETURN JUMPDEST CALLVALUE DUP1 ISZERO PUSH2 0x1AC JUMPI PUSH1 0x0 DUP1 REVERT JUMPDEST POP PUSH2 0x1C7 PUSH1 0x4 DUP1 CALLDATASIZE SUB DUP2 ADD SWAP1 PUSH2 0x1C2 SWAP2 SWAP1 PUSH2 0xD48 JUMP JUMPDEST PUSH2 0x5AA JUMP JUMPDEST STOP JUMPDEST CALLVALUE DUP1 ISZERO PUSH2 0x1D5 JUMPI PUSH1 0x0 DUP1 REVERT JUMPDEST POP PUSH2 0x1DE PUSH2 0x6C2 JUMP JUMPDEST PUSH1 0x40 MLOAD PUSH2 0x1EB SWAP2 SWAP1 PUSH2 0xDB7 JUMP JUMPDEST PUSH1 0x40 MLOAD DUP1 SWAP2 SUB SWAP1 RETURN JUMPDEST CALLVALUE DUP1 ISZERO PUSH2 0x200 JUMPI PUSH1 0x0 DUP1 REVERT JUMPDEST POP PUSH2 0x209 PUSH2 0x6CA JUMP JUMPDEST PUSH1 0x40 MLOAD PUSH2 0x216 SWAP2 SWAP1 PUSH2 0xDB7 JUMP JUMPDEST PUSH1 0x40 MLOAD DUP1 SWAP2 SUB SWAP1 RETURN JUMPDEST CALLVALUE DUP1 ISZERO PUSH2 0x22B JUMPI PUSH1 0x0 DUP1 REVERT JUMPDEST POP PUSH2 0x234 PUSH2 0x6D0 JUMP JUMPDEST PUSH1 0x40 MLOAD PUSH2 0x241 SWAP2 SWAP1 PUSH2 0xDB7 JUMP JUMPDEST PUSH1 0x40 MLOAD DUP1 SWAP2 SUB SWAP1 RETURN JUMPDEST CALLVALUE DUP1 ISZERO PUSH2 0x256 JUMPI PUSH1 0x0 DUP1 REVERT JUMPDEST POP PUSH2 0x25F PUSH2 0x6DA JUMP JUMPDEST PUSH1 0x40 MLOAD PUSH2 0x26C SWAP2 SWAP1 PUSH2 0xDB7 JUMP JUMPDEST PUSH1 0x40 MLOAD DUP1 SWAP2 SUB SWAP1 RETURN JUMPDEST PUSH2 0x27D PUSH2 0x6E0 JUMP JUMPDEST STOP JUMPDEST CALLVALUE DUP1 ISZERO PUSH2 0x28B JUMPI PUSH1 0x0 DUP1 REVERT JUMPDEST POP PUSH2 0x2A6 PUSH1 0x4 DUP1 CALLDATASIZE SUB DUP2 ADD SWAP1 PUSH2 0x2A1 SWAP2 SWAP1 PUSH2 0x9A6 JUMP JUMPDEST PUSH2 0x760 JUMP JUMPDEST STOP JUMPDEST PUSH1 0x1 PUSH1 0x0 SWAP1 SLOAD SWAP1 PUSH2 0x100 EXP SWAP1 DIV PUSH20 0xFFFFFFFFFFFFFFFFFFFFFFFFFFFFFFFFFFFFFFFF AND PUSH20 0xFFFFFFFFFFFFFFFFFFFFFFFFFFFFFFFFFFFFFFFF AND CALLER PUSH20 0xFFFFFFFFFFFFFFFFFFFFFFFFFFFFFFFFFFFFFFFF AND EQ PUSH2 0x302 JUMPI PUSH1 0x0 DUP1 REVERT JUMPDEST PUSH1 0x0 DUP1 DUP3 DUP2 MSTORE PUSH1 0x20 ADD SWAP1 DUP2 MSTORE PUSH1 0x20 ADD PUSH1 0x0 KECCAK256 PUSH1 0x2 ADD PUSH1 0x14 SWAP1 SLOAD SWAP1 PUSH2 0x100 EXP SWAP1 DIV PUSH1 0xFF AND ISZERO PUSH2 0x32F JUMPI PUSH1 0x0 DUP1 REVERT JUMPDEST PUSH1 0x0 PUSH1 0x2 PUSH1 0x4 SLOAD PUSH2 0x340 SWAP2 SWAP1 PUSH2 0xE30 JUMP JUMPDEST SWAP1 POP DUP1 PUSH1 0x0 DUP1 DUP5 DUP2 MSTORE PUSH1 0x20 ADD SWAP1 DUP2 MSTORE PUSH1 0x20 ADD PUSH1 0x0 KECCAK256 PUSH1 0x3 ADD SLOAD LT ISZERO PUSH2 0x364 JUMPI PUSH1 0x0 DUP1 REVERT JUMPDEST PUSH1 0x0 DUP1 DUP4 DUP2 MSTORE PUSH1 0x20 ADD SWAP1 DUP2 MSTORE PUSH1 0x20 ADD PUSH1 0x0 KECCAK256 PUSH1 0x2 ADD PUSH1 0x0 SWAP1 SLOAD SWAP1 PUSH2 0x100 EXP SWAP1 DIV PUSH20 0xFFFFFFFFFFFFFFFFFFFFFFFFFFFFFFFFFFFFFFFF AND PUSH20 0xFFFFFFFFFFFFFFFFFFFFFFFFFFFFFFFFFFFFFFFF AND PUSH2 0x8FC PUSH1 0x0 DUP1 DUP6 DUP2 MSTORE PUSH1 0x20 ADD SWAP1 DUP2 MSTORE PUSH1 0x20 ADD PUSH1 0x0 KECCAK256 PUSH1 0x1 ADD SLOAD SWAP1 DUP2 ISZERO MUL SWAP1 PUSH1 0x40 MLOAD PUSH1 0x0 PUSH1 0x40 MLOAD DUP1 DUP4 SUB DUP2 DUP6 DUP9 DUP9 CALL SWAP4 POP POP POP POP ISZERO DUP1 ISZERO PUSH2 0x3F4 JUMPI RETURNDATASIZE PUSH1 0x0 DUP1 RETURNDATACOPY RETURNDATASIZE PUSH1 0x0 REVERT JUMPDEST POP PUSH1 0x1 PUSH1 0x0 DUP1 DUP5 DUP2 MSTORE PUSH1 0x20 ADD SWAP1 DUP2 MSTORE PUSH1 0x20 ADD PUSH1 0x0 KECCAK256 PUSH1 0x2 ADD PUSH1 0x14 PUSH2 0x100 EXP DUP2 SLOAD DUP2 PUSH1 0xFF MUL NOT AND SWAP1 DUP4 ISZERO ISZERO MUL OR SWAP1 SSTORE POP POP POP JUMP JUMPDEST PUSH1 0x3 PUSH1 0x20 MSTORE DUP1 PUSH1 0x0 MSTORE PUSH1 0x40 PUSH1 0x0 KECCAK256 PUSH1 0x0 SWAP2 POP SLOAD SWAP1 PUSH2 0x100 EXP SWAP1 DIV PUSH1 0xFF AND DUP2 JUMP JUMPDEST PUSH1 0x0 DUP1 PUSH1 0x0 DUP1 PUSH1 0x0 PUSH1 0x2 SLOAD PUSH2 0x45A PUSH2 0x6C2 JUMP JUMPDEST PUSH2 0x462 PUSH2 0x6D0 JUMP JUMPDEST PUSH1 0x4 SLOAD PUSH1 0x1 PUSH1 0x0 SWAP1 SLOAD SWAP1 PUSH2 0x100 EXP SWAP1 DIV PUSH20 0xFFFFFFFFFFFFFFFFFFFFFFFFFFFFFFFFFFFFFFFF AND SWAP5 POP SWAP5 POP SWAP5 POP SWAP5 POP SWAP5 POP SWAP1 SWAP2 SWAP3 SWAP4 SWAP5 JUMP JUMPDEST PUSH1 0x1 PUSH1 0x0 SWAP1 SLOAD SWAP1 PUSH2 0x100 EXP SWAP1 DIV PUSH20 0xFFFFFFFFFFFFFFFFFFFFFFFFFFFFFFFFFFFFFFFF AND DUP2 JUMP JUMPDEST PUSH1 0x0 PUSH1 0x20 MSTORE DUP1 PUSH1 0x0 MSTORE PUSH1 0x40 PUSH1 0x0 KECCAK256 PUSH1 0x0 SWAP2 POP SWAP1 POP DUP1 PUSH1 0x0 ADD DUP1 SLOAD PUSH2 0x4E2 SWAP1 PUSH2 0xE90 JUMP JUMPDEST DUP1 PUSH1 0x1F ADD PUSH1 0x20 DUP1 SWAP2 DIV MUL PUSH1 0x20 ADD PUSH1 0x40 MLOAD SWAP1 DUP2 ADD PUSH1 0x40 MSTORE DUP1 SWAP3 SWAP2 SWAP1 DUP2 DUP2 MSTORE PUSH1 0x20 ADD DUP3 DUP1 SLOAD PUSH2 0x50E SWAP1 PUSH2 0xE90 JUMP JUMPDEST DUP1 ISZERO PUSH2 0x55B JUMPI DUP1 PUSH1 0x1F LT PUSH2 0x530 JUMPI PUSH2 0x100 DUP1 DUP4 SLOAD DIV MUL DUP4 MSTORE SWAP2 PUSH1 0x20 ADD SWAP2 PUSH2 0x55B JUMP JUMPDEST DUP3 ADD SWAP2 SWAP1 PUSH1 0x0 MSTORE PUSH1 0x20 PUSH1 0x0 KECCAK256 SWAP1 JUMPDEST DUP2 SLOAD DUP2 MSTORE SWAP1 PUSH1 0x1 ADD SWAP1 PUSH1 0x20 ADD DUP1 DUP4 GT PUSH2 0x53E JUMPI DUP3 SWAP1 SUB PUSH1 0x1F AND DUP3 ADD SWAP2 JUMPDEST POP POP POP POP POP SWAP1 DUP1 PUSH1 0x1 ADD SLOAD SWAP1 DUP1 PUSH1 0x2 ADD PUSH1 0x0 SWAP1 SLOAD SWAP1 PUSH2 0x100 EXP SWAP1 DIV PUSH20 0xFFFFFFFFFFFFFFFFFFFFFFFFFFFFFFFFFFFFFFFF AND SWAP1 DUP1 PUSH1 0x2 ADD PUSH1 0x14 SWAP1 SLOAD SWAP1 PUSH2 0x100 EXP SWAP1 DIV PUSH1 0xFF AND SWAP1 DUP1 PUSH1 0x3 ADD SLOAD SWAP1 POP DUP6 JUMP JUMPDEST PUSH1 0x1 PUSH1 0x0 SWAP1 SLOAD SWAP1 PUSH2 0x100 EXP SWAP1 DIV PUSH20 0xFFFFFFFFFFFFFFFFFFFFFFFFFFFFFFFFFFFFFFFF AND PUSH20 0xFFFFFFFFFFFFFFFFFFFFFFFFFFFFFFFFFFFFFFFF AND CALLER PUSH20 0xFFFFFFFFFFFFFFFFFFFFFFFFFFFFFFFFFFFFFFFF AND EQ PUSH2 0x604 JUMPI PUSH1 0x0 DUP1 REVERT JUMPDEST PUSH1 0x0 DUP1 PUSH1 0x0 PUSH1 0x5 PUSH1 0x0 DUP2 SLOAD DUP1 SWAP3 SWAP2 SWAP1 PUSH2 0x61C SWAP1 PUSH2 0xEC2 JUMP JUMPDEST SWAP2 SWAP1 POP SSTORE DUP2 MSTORE PUSH1 0x20 ADD SWAP1 DUP2 MSTORE PUSH1 0x20 ADD PUSH1 0x0 KECCAK256 SWAP1 POP DUP4 DUP2 PUSH1 0x0 ADD SWAP1 DUP1 MLOAD SWAP1 PUSH1 0x20 ADD SWAP1 PUSH2 0x648 SWAP3 SWAP2 SWAP1 PUSH2 0x8B9 JUMP JUMPDEST POP DUP3 DUP2 PUSH1 0x1 ADD DUP2 SWAP1 SSTORE POP DUP2 DUP2 PUSH1 0x2 ADD PUSH1 0x0 PUSH2 0x100 EXP DUP2 SLOAD DUP2 PUSH20 0xFFFFFFFFFFFFFFFFFFFFFFFFFFFFFFFFFFFFFFFF MUL NOT AND SWAP1 DUP4 PUSH20 0xFFFFFFFFFFFFFFFFFFFFFFFFFFFFFFFFFFFFFFFF AND MUL OR SWAP1 SSTORE POP PUSH1 0x0 DUP2 PUSH1 0x2 ADD PUSH1 0x14 PUSH2 0x100 EXP DUP2 SLOAD DUP2 PUSH1 0xFF MUL NOT AND SWAP1 DUP4 ISZERO ISZERO MUL OR SWAP1 SSTORE POP PUSH1 0x0 DUP2 PUSH1 0x3 ADD DUP2 SWAP1 SSTORE POP POP POP POP POP JUMP JUMPDEST PUSH1 0x0 SELFBALANCE SWAP1 POP SWAP1 JUMP JUMPDEST PUSH1 0x2 SLOAD DUP2 JUMP JUMPDEST PUSH1 0x0 PUSH1 0x5 SLOAD SWAP1 POP SWAP1 JUMP JUMPDEST PUSH1 0x4 SLOAD DUP2 JUMP JUMPDEST PUSH1 0x2 SLOAD CALLVALUE GT PUSH2 0x6EE JUMPI PUSH1 0x0 DUP1 REVERT JUMPDEST PUSH1 0x1 PUSH1 0x3 PUSH1 0x0 CALLER PUSH20 0xFFFFFFFFFFFFFFFFFFFFFFFFFFFFFFFFFFFFFFFF AND PUSH20 0xFFFFFFFFFFFFFFFFFFFFFFFFFFFFFFFFFFFFFFFF AND DUP2 MSTORE PUSH1 0x20 ADD SWAP1 DUP2 MSTORE PUSH1 0x20 ADD PUSH1 0x0 KECCAK256 PUSH1 0x0 PUSH2 0x100 EXP DUP2 SLOAD DUP2 PUSH1 0xFF MUL NOT AND SWAP1 DUP4 ISZERO ISZERO MUL OR SWAP1 SSTORE POP PUSH1 0x4 PUSH1 0x0 DUP2 SLOAD DUP1 SWAP3 SWAP2 SWAP1 PUSH2 0x759 SWAP1 PUSH2 0xEC2 JUMP JUMPDEST SWAP2 SWAP1 POP SSTORE POP JUMP JUMPDEST PUSH1 0x3 PUSH1 0x0 CALLER PUSH20 0xFFFFFFFFFFFFFFFFFFFFFFFFFFFFFFFFFFFFFFFF AND PUSH20 0xFFFFFFFFFFFFFFFFFFFFFFFFFFFFFFFFFFFFFFFF AND DUP2 MSTORE PUSH1 0x20 ADD SWAP1 DUP2 MSTORE PUSH1 0x20 ADD PUSH1 0x0 KECCAK256 PUSH1 0x0 SWAP1 SLOAD SWAP1 PUSH2 0x100 EXP SWAP1 DIV PUSH1 0xFF AND PUSH2 0x7B6 JUMPI PUSH1 0x0 DUP1 REVERT JUMPDEST PUSH1 0x0 DUP1 DUP3 DUP2 MSTORE PUSH1 0x20 ADD SWAP1 DUP2 MSTORE PUSH1 0x20 ADD PUSH1 0x0 KECCAK256 PUSH1 0x4 ADD PUSH1 0x0 CALLER PUSH20 0xFFFFFFFFFFFFFFFFFFFFFFFFFFFFFFFFFFFFFFFF AND PUSH20 0xFFFFFFFFFFFFFFFFFFFFFFFFFFFFFFFFFFFFFFFF AND DUP2 MSTORE PUSH1 0x20 ADD SWAP1 DUP2 MSTORE PUSH1 0x20 ADD PUSH1 0x0 KECCAK256 PUSH1 0x0 SWAP1 SLOAD SWAP1 PUSH2 0x100 EXP SWAP1 DIV PUSH1 0xFF AND ISZERO PUSH2 0x820 JUMPI PUSH1 0x0 DUP1 REVERT JUMPDEST PUSH1 0x1 PUSH1 0x0 DUP1 DUP4 DUP2 MSTORE PUSH1 0x20 ADD SWAP1 DUP2 MSTORE PUSH1 0x20 ADD PUSH1 0x0 KECCAK256 PUSH1 0x4 ADD PUSH1 0x0 CALLER PUSH20 0xFFFFFFFFFFFFFFFFFFFFFFFFFFFFFFFFFFFFFFFF AND PUSH20 0xFFFFFFFFFFFFFFFFFFFFFFFFFFFFFFFFFFFFFFFF AND DUP2 MSTORE PUSH1 0x20 ADD SWAP1 DUP2 MSTORE PUSH1 0x20 ADD PUSH1 0x0 KECCAK256 PUSH1 0x0 PUSH2 0x100 EXP DUP2 SLOAD DUP2 PUSH1 0xFF MUL NOT AND SWAP1 DUP4 ISZERO ISZERO MUL OR SWAP1 SSTORE POP PUSH1 0x0 DUP1 DUP3 DUP2 MSTORE PUSH1 0x20 ADD SWAP1 DUP2 MSTORE PUSH1 0x20 ADD PUSH1 0x0 KECCAK256 PUSH1 0x3 ADD PUSH1 0x0 DUP2 SLOAD DUP1 SWAP3 SWAP2 SWAP1 PUSH2 0x8B1 SWAP1 PUSH2 0xEC2 JUMP JUMPDEST SWAP2 SWAP1 POP SSTORE POP POP JUMP JUMPDEST DUP3 DUP1 SLOAD PUSH2 0x8C5 SWAP1 PUSH2 0xE90 JUMP JUMPDEST SWAP1 PUSH1 0x0 MSTORE PUSH1 0x20 PUSH1 0x0 KECCAK256 SWAP1 PUSH1 0x1F ADD PUSH1 0x20 SWAP1 DIV DUP2 ADD SWAP3 DUP3 PUSH2 0x8E7 JUMPI PUSH1 0x0 DUP6 SSTORE PUSH2 0x92E JUMP JUMPDEST DUP3 PUSH1 0x1F LT PUSH2 0x900 JUMPI DUP1 MLOAD PUSH1 0xFF NOT AND DUP4 DUP1 ADD OR DUP6 SSTORE PUSH2 0x92E JUMP JUMPDEST DUP3 DUP1 ADD PUSH1 0x1 ADD DUP6 SSTORE DUP3 ISZERO PUSH2 0x92E JUMPI SWAP2 DUP3 ADD JUMPDEST DUP3 DUP2 GT ISZERO PUSH2 0x92D JUMPI DUP3 MLOAD DUP3 SSTORE SWAP2 PUSH1 0x20 ADD SWAP2 SWAP1 PUSH1 0x1 ADD SWAP1 PUSH2 0x912 JUMP JUMPDEST JUMPDEST POP SWAP1 POP PUSH2 0x93B SWAP2 SWAP1 PUSH2 0x93F JUMP JUMPDEST POP SWAP1 JUMP JUMPDEST JUMPDEST DUP1 DUP3 GT ISZERO PUSH2 0x958 JUMPI PUSH1 0x0 DUP2 PUSH1 0x0 SWAP1 SSTORE POP PUSH1 0x1 ADD PUSH2 0x940 JUMP JUMPDEST POP SWAP1 JUMP JUMPDEST PUSH1 0x0 PUSH1 0x40 MLOAD SWAP1 POP SWAP1 JUMP JUMPDEST PUSH1 0x0 DUP1 REVERT JUMPDEST PUSH1 0x0 DUP1 REVERT JUMPDEST PUSH1 0x0 DUP2 SWAP1 POP SWAP2 SWAP1 POP JUMP JUMPDEST PUSH2 0x983 DUP2 PUSH2 0x970 JUMP JUMPDEST DUP2 EQ PUSH2 0x98E JUMPI PUSH1 0x0 DUP1 REVERT JUMPDEST POP JUMP JUMPDEST PUSH1 0x0 DUP2 CALLDATALOAD SWAP1 POP PUSH2 0x9A0 DUP2 PUSH2 0x97A JUMP JUMPDEST SWAP3 SWAP2 POP POP JUMP JUMPDEST PUSH1 0x0 PUSH1 0x20 DUP3 DUP5 SUB SLT ISZERO PUSH2 0x9BC JUMPI PUSH2 0x9BB PUSH2 0x966 JUMP JUMPDEST JUMPDEST PUSH1 0x0 PUSH2 0x9CA DUP5 DUP3 DUP6 ADD PUSH2 0x991 JUMP JUMPDEST SWAP2 POP POP SWAP3 SWAP2 POP POP JUMP JUMPDEST PUSH1 0x0 PUSH20 0xFFFFFFFFFFFFFFFFFFFFFFFFFFFFFFFFFFFFFFFF DUP3 AND SWAP1 POP SWAP2 SWAP1 POP JUMP JUMPDEST PUSH1 0x0 PUSH2 0x9FE DUP3 PUSH2 0x9D3 JUMP JUMPDEST SWAP1 POP SWAP2 SWAP1 POP JUMP JUMPDEST PUSH2 0xA0E DUP2 PUSH2 0x9F3 JUMP JUMPDEST DUP2 EQ PUSH2 0xA19 JUMPI PUSH1 0x0 DUP1 REVERT JUMPDEST POP JUMP JUMPDEST PUSH1 0x0 DUP2 CALLDATALOAD SWAP1 POP PUSH2 0xA2B DUP2 PUSH2 0xA05 JUMP JUMPDEST SWAP3 SWAP2 POP POP JUMP JUMPDEST PUSH1 0x0 PUSH1 0x20 DUP3 DUP5 SUB SLT ISZERO PUSH2 0xA47 JUMPI PUSH2 0xA46 PUSH2 0x966 JUMP JUMPDEST JUMPDEST PUSH1 0x0 PUSH2 0xA55 DUP5 DUP3 DUP6 ADD PUSH2 0xA1C JUMP JUMPDEST SWAP2 POP POP SWAP3 SWAP2 POP POP JUMP JUMPDEST PUSH1 0x0 DUP2 ISZERO ISZERO SWAP1 POP SWAP2 SWAP1 POP JUMP JUMPDEST PUSH2 0xA73 DUP2 PUSH2 0xA5E JUMP JUMPDEST DUP3 MSTORE POP POP JUMP JUMPDEST PUSH1 0x0 PUSH1 0x20 DUP3 ADD SWAP1 POP PUSH2 0xA8E PUSH1 0x0 DUP4 ADD DUP5 PUSH2 0xA6A JUMP JUMPDEST SWAP3 SWAP2 POP POP JUMP JUMPDEST PUSH2 0xA9D DUP2 PUSH2 0x970 JUMP JUMPDEST DUP3 MSTORE POP POP JUMP JUMPDEST PUSH2 0xAAC DUP2 PUSH2 0x9F3 JUMP JUMPDEST DUP3 MSTORE POP POP JUMP JUMPDEST PUSH1 0x0 PUSH1 0xA0 DUP3 ADD SWAP1 POP PUSH2 0xAC7 PUSH1 0x0 DUP4 ADD DUP9 PUSH2 0xA94 JUMP JUMPDEST PUSH2 0xAD4 PUSH1 0x20 DUP4 ADD DUP8 PUSH2 0xA94 JUMP JUMPDEST PUSH2 0xAE1 PUSH1 0x40 DUP4 ADD DUP7 PUSH2 0xA94 JUMP JUMPDEST PUSH2 0xAEE PUSH1 0x60 DUP4 ADD DUP6 PUSH2 0xA94 JUMP JUMPDEST PUSH2 0xAFB PUSH1 0x80 DUP4 ADD DUP5 PUSH2 0xAA3 JUMP JUMPDEST SWAP7 SWAP6 POP POP POP POP POP POP JUMP JUMPDEST PUSH1 0x0 PUSH1 0x20 DUP3 ADD SWAP1 POP PUSH2 0xB1A PUSH1 0x0 DUP4 ADD DUP5 PUSH2 0xAA3 JUMP JUMPDEST SWAP3 SWAP2 POP POP JUMP JUMPDEST PUSH1 0x0 DUP2 MLOAD SWAP1 POP SWAP2 SWAP1 POP JUMP JUMPDEST PUSH1 0x0 DUP3 DUP3 MSTORE PUSH1 0x20 DUP3 ADD SWAP1 POP SWAP3 SWAP2 POP POP JUMP JUMPDEST PUSH1 0x0 JUMPDEST DUP4 DUP2 LT ISZERO PUSH2 0xB5A JUMPI DUP1 DUP3 ADD MLOAD DUP2 DUP5 ADD MSTORE PUSH1 0x20 DUP2 ADD SWAP1 POP PUSH2 0xB3F JUMP JUMPDEST DUP4 DUP2 GT ISZERO PUSH2 0xB69 JUMPI PUSH1 0x0 DUP5 DUP5 ADD MSTORE JUMPDEST POP POP POP POP JUMP JUMPDEST PUSH1 0x0 PUSH1 0x1F NOT PUSH1 0x1F DUP4 ADD AND SWAP1 POP SWAP2 SWAP1 POP JUMP JUMPDEST PUSH1 0x0 PUSH2 0xB8B DUP3 PUSH2 0xB20 JUMP JUMPDEST PUSH2 0xB95 DUP2 DUP6 PUSH2 0xB2B JUMP JUMPDEST SWAP4 POP PUSH2 0xBA5 DUP2 DUP6 PUSH1 0x20 DUP7 ADD PUSH2 0xB3C JUMP JUMPDEST PUSH2 0xBAE DUP2 PUSH2 0xB6F JUMP JUMPDEST DUP5 ADD SWAP2 POP POP SWAP3 SWAP2 POP POP JUMP JUMPDEST PUSH1 0x0 PUSH1 0xA0 DUP3 ADD SWAP1 POP DUP2 DUP2 SUB PUSH1 0x0 DUP4 ADD MSTORE PUSH2 0xBD3 DUP2 DUP9 PUSH2 0xB80 JUMP JUMPDEST SWAP1 POP PUSH2 0xBE2 PUSH1 0x20 DUP4 ADD DUP8 PUSH2 0xA94 JUMP JUMPDEST PUSH2 0xBEF PUSH1 0x40 DUP4 ADD DUP7 PUSH2 0xAA3 JUMP JUMPDEST PUSH2 0xBFC PUSH1 0x60 DUP4 ADD DUP6 PUSH2 0xA6A JUMP JUMPDEST PUSH2 0xC09 PUSH1 0x80 DUP4 ADD DUP5 PUSH2 0xA94 JUMP JUMPDEST SWAP7 SWAP6 POP POP POP POP POP POP JUMP JUMPDEST PUSH1 0x0 DUP1 REVERT JUMPDEST PUSH1 0x0 DUP1 REVERT JUMPDEST PUSH32 0x4E487B7100000000000000000000000000000000000000000000000000000000 PUSH1 0x0 MSTORE PUSH1 0x41 PUSH1 0x4 MSTORE PUSH1 0x24 PUSH1 0x0 REVERT JUMPDEST PUSH2 0xC55 DUP3 PUSH2 0xB6F JUMP JUMPDEST DUP2 ADD DUP2 DUP2 LT PUSH8 0xFFFFFFFFFFFFFFFF DUP3 GT OR ISZERO PUSH2 0xC74 JUMPI PUSH2 0xC73 PUSH2 0xC1D JUMP JUMPDEST JUMPDEST DUP1 PUSH1 0x40 MSTORE POP POP POP JUMP JUMPDEST PUSH1 0x0 PUSH2 0xC87 PUSH2 0x95C JUMP JUMPDEST SWAP1 POP PUSH2 0xC93 DUP3 DUP3 PUSH2 0xC4C JUMP JUMPDEST SWAP2 SWAP1 POP JUMP JUMPDEST PUSH1 0x0 PUSH8 0xFFFFFFFFFFFFFFFF DUP3 GT ISZERO PUSH2 0xCB3 JUMPI PUSH2 0xCB2 PUSH2 0xC1D JUMP JUMPDEST JUMPDEST PUSH2 0xCBC DUP3 PUSH2 0xB6F JUMP JUMPDEST SWAP1 POP PUSH1 0x20 DUP2 ADD SWAP1 POP SWAP2 SWAP1 POP JUMP JUMPDEST DUP3 DUP2 DUP4 CALLDATACOPY PUSH1 0x0 DUP4 DUP4 ADD MSTORE POP POP POP JUMP JUMPDEST PUSH1 0x0 PUSH2 0xCEB PUSH2 0xCE6 DUP5 PUSH2 0xC98 JUMP JUMPDEST PUSH2 0xC7D JUMP JUMPDEST SWAP1 POP DUP3 DUP2 MSTORE PUSH1 0x20 DUP2 ADD DUP5 DUP5 DUP5 ADD GT ISZERO PUSH2 0xD07 JUMPI PUSH2 0xD06 PUSH2 0xC18 JUMP JUMPDEST JUMPDEST PUSH2 0xD12 DUP5 DUP3 DUP6 PUSH2 0xCC9 JUMP JUMPDEST POP SWAP4 SWAP3 POP POP POP JUMP JUMPDEST PUSH1 0x0 DUP3 PUSH1 0x1F DUP4 ADD SLT PUSH2 0xD2F JUMPI PUSH2 0xD2E PUSH2 0xC13 JUMP JUMPDEST JUMPDEST DUP2 CALLDATALOAD PUSH2 0xD3F DUP5 DUP3 PUSH1 0x20 DUP7 ADD PUSH2 0xCD8 JUMP JUMPDEST SWAP2 POP POP SWAP3 SWAP2 POP POP JUMP JUMPDEST PUSH1 0x0 DUP1 PUSH1 0x0 PUSH1 0x60 DUP5 DUP7 SUB SLT ISZERO PUSH2 0xD61 JUMPI PUSH2 0xD60 PUSH2 0x966 JUMP JUMPDEST JUMPDEST PUSH1 0x0 DUP5 ADD CALLDATALOAD PUSH8 0xFFFFFFFFFFFFFFFF DUP2 GT ISZERO PUSH2 0xD7F JUMPI PUSH2 0xD7E PUSH2 0x96B JUMP JUMPDEST JUMPDEST PUSH2 0xD8B DUP7 DUP3 DUP8 ADD PUSH2 0xD1A JUMP JUMPDEST SWAP4 POP POP PUSH1 0x20 PUSH2 0xD9C DUP7 DUP3 DUP8 ADD PUSH2 0x991 JUMP JUMPDEST SWAP3 POP POP PUSH1 0x40 PUSH2 0xDAD DUP7 DUP3 DUP8 ADD PUSH2 0xA1C JUMP JUMPDEST SWAP2 POP POP SWAP3 POP SWAP3 POP SWAP3 JUMP JUMPDEST PUSH1 0x0 PUSH1 0x20 DUP3 ADD SWAP1 POP PUSH2 0xDCC PUSH1 0x0 DUP4 ADD DUP5 PUSH2 0xA94 JUMP JUMPDEST SWAP3 SWAP2 POP POP JUMP JUMPDEST PUSH32 0x4E487B7100000000000000000000000000000000000000000000000000000000 PUSH1 0x0 MSTORE PUSH1 0x12 PUSH1 0x4 MSTORE PUSH1 0x24 PUSH1 0x0 REVERT JUMPDEST PUSH32 0x4E487B7100000000000000000000000000000000000000000000000000000000 PUSH1 0x0 MSTORE PUSH1 0x11 PUSH1 0x4 MSTORE PUSH1 0x24 PUSH1 0x0 REVERT JUMPDEST PUSH1 0x0 PUSH2 0xE3B DUP3 PUSH2 0x970 JUMP JUMPDEST SWAP2 POP PUSH2 0xE46 DUP4 PUSH2 0x970 JUMP JUMPDEST SWAP3 POP DUP3 PUSH2 0xE56 JUMPI PUSH2 0xE55 PUSH2 0xDD2 JUMP JUMPDEST JUMPDEST DUP3 DUP3 DIV SWAP1 POP SWAP3 SWAP2 POP POP JUMP JUMPDEST PUSH32 0x4E487B7100000000000000000000000000000000000000000000000000000000 PUSH1 0x0 MSTORE PUSH1 0x22 PUSH1 0x4 MSTORE PUSH1 0x24 PUSH1 0x0 REVERT JUMPDEST PUSH1 0x0 PUSH1 0x2 DUP3 DIV SWAP1 POP PUSH1 0x1 DUP3 AND DUP1 PUSH2 0xEA8 JUMPI PUSH1 0x7F DUP3 AND SWAP2 POP JUMPDEST PUSH1 0x20 DUP3 LT DUP2 EQ ISZERO PUSH2 0xEBC JUMPI PUSH2 0xEBB PUSH2 0xE61 JUMP JUMPDEST JUMPDEST POP SWAP2 SWAP1 POP JUMP JUMPDEST PUSH1 0x0 PUSH2 0xECD DUP3 PUSH2 0x970 JUMP JUMPDEST SWAP2 POP PUSH32 0xFFFFFFFFFFFFFFFFFFFFFFFFFFFFFFFFFFFFFFFFFFFFFFFFFFFFFFFFFFFFFFFF DUP3 EQ ISZERO PUSH2 0xF00 JUMPI PUSH2 0xEFF PUSH2 0xE01 JUMP JUMPDEST JUMPDEST PUSH1 0x1 DUP3 ADD SWAP1 POP SWAP2 SWAP1 POP JUMP INVALID LOG2 PUSH5 0x6970667358 0x22 SLT KECCAK256 SLT DUP1 0xC1 PUSH17 0xAA47ED06C9EA303B0DA741A7E636ADC5A5 SHL 0xF8 0xE3 SWAP8 GT DUP1 JUMPDEST LOG3 PUSH3 0xAF5964 PUSH20 0x6F6C634300080B0033A2646970667358221220AF 0xCF 0xC0 0xB3 0xC8 PUSH17 0xDF84FFB656B4F465CA975DC0EBBDAA29F6 0xBD EXTCODEHASH LOG1 0xB3 SMOD PUSH23 0x5BA0F264736F6C634300080B0033000000000000000000 "},"gasEstimates":{"creation":{"codeDepositCost":"1075400","executionCost":"1120","totalCost":"1076520"},"external":{"createCampaign(uint256)":"infinite","deployedContracts(uint256)":"4934","getDeployedContracts()":"infinite"}},"methodIdentifiers":{"createCampaign(uint256)":"a3303a75","deployedContracts(uint256)":"9ad1ee10","getDeployedContracts()":"aa9a068f"}},"storageLayout":{"storage":[{"astId":4,"contract":"campaign.sol:Factory","label":"deployedContracts","offset":0,"slot":"0","type":"t_array(t_address)dyn_storage"}],"types":{"t_address":{"encoding":"inplace","label":"address","numberOfBytes":"20"},"t_array(t_address)dyn_storage":{"base":"t_address","encoding":"dynamic_array","label":"address[]","numberOfBytes":"32"}}},"userdoc":{"kind":"user","methods":{},"version":1}}